{
  "contractName": "Auction",
  "abi": [
    {
      "inputs": [
        {
          "internalType": "address payable",
          "name": "_owner",
          "type": "address"
        },
        {
          "internalType": "string",
          "name": "_title",
          "type": "string"
        },
        {
          "internalType": "uint256",
          "name": "_startingPrice",
          "type": "uint256"
        }
      ],
      "payable": false,
      "stateMutability": "nonpayable",
      "type": "constructor"
    },
    {
      "anonymous": false,
      "inputs": [
        {
          "indexed": false,
          "internalType": "address",
          "name": "bidder",
          "type": "address"
        },
        {
          "indexed": false,
          "internalType": "uint256",
          "name": "bid",
          "type": "uint256"
        },
        {
          "indexed": false,
          "internalType": "address",
          "name": "highestBidder",
          "type": "address"
        },
        {
          "indexed": false,
          "internalType": "uint256",
          "name": "highestBindingBid",
          "type": "uint256"
        }
      ],
      "name": "LogBid",
      "type": "event"
    },
    {
      "anonymous": false,
      "inputs": [],
      "name": "LogCanceled",
      "type": "event"
    },
    {
      "anonymous": false,
      "inputs": [
        {
          "indexed": false,
          "internalType": "address",
          "name": "withdrawer",
          "type": "address"
        },
        {
          "indexed": false,
          "internalType": "address",
          "name": "withdrawalAccount",
          "type": "address"
        },
        {
          "indexed": false,
          "internalType": "uint256",
          "name": "amount",
          "type": "uint256"
        }
      ],
      "name": "LogWithdrawal",
      "type": "event"
    },
    {
      "constant": true,
      "inputs": [],
      "name": "canceled",
      "outputs": [
        {
          "internalType": "bool",
          "name": "",
          "type": "bool"
        }
      ],
      "payable": false,
      "stateMutability": "view",
      "type": "function"
    },
    {
      "constant": true,
      "inputs": [],
      "name": "endBlock",
      "outputs": [
        {
          "internalType": "uint256",
          "name": "",
          "type": "uint256"
        }
      ],
      "payable": false,
      "stateMutability": "view",
      "type": "function"
    },
    {
      "constant": true,
      "inputs": [
        {
          "internalType": "address",
          "name": "",
          "type": "address"
        }
      ],
      "name": "fundsByBidder",
      "outputs": [
        {
          "internalType": "uint256",
          "name": "",
          "type": "uint256"
        }
      ],
      "payable": false,
      "stateMutability": "view",
      "type": "function"
    },
    {
      "constant": true,
      "inputs": [],
      "name": "highestBidder",
      "outputs": [
        {
          "internalType": "address payable",
          "name": "",
          "type": "address"
        }
      ],
      "payable": false,
      "stateMutability": "view",
      "type": "function"
    },
    {
      "constant": true,
      "inputs": [],
      "name": "highestBindingBid",
      "outputs": [
        {
          "internalType": "uint256",
          "name": "",
          "type": "uint256"
        }
      ],
      "payable": false,
      "stateMutability": "view",
      "type": "function"
    },
    {
      "constant": true,
      "inputs": [],
      "name": "ipfsHash",
      "outputs": [
        {
          "internalType": "string",
          "name": "",
          "type": "string"
        }
      ],
      "payable": false,
      "stateMutability": "view",
      "type": "function"
    },
    {
      "constant": true,
      "inputs": [],
      "name": "owner",
      "outputs": [
        {
          "internalType": "address payable",
          "name": "",
          "type": "address"
        }
      ],
      "payable": false,
      "stateMutability": "view",
      "type": "function"
    },
    {
      "constant": true,
      "inputs": [],
      "name": "startBlock",
      "outputs": [
        {
          "internalType": "uint256",
          "name": "",
          "type": "uint256"
        }
      ],
      "payable": false,
      "stateMutability": "view",
      "type": "function"
    },
    {
      "constant": true,
      "inputs": [],
      "name": "startingPrice",
      "outputs": [
        {
          "internalType": "uint256",
          "name": "",
          "type": "uint256"
        }
      ],
      "payable": false,
      "stateMutability": "view",
      "type": "function"
    },
    {
      "constant": true,
      "inputs": [],
      "name": "title",
      "outputs": [
        {
          "internalType": "string",
          "name": "",
          "type": "string"
        }
      ],
      "payable": false,
      "stateMutability": "view",
      "type": "function"
    },
    {
      "constant": true,
      "inputs": [],
      "name": "getHighestBid",
      "outputs": [
        {
          "internalType": "uint256",
          "name": "",
          "type": "uint256"
        }
      ],
      "payable": false,
      "stateMutability": "view",
      "type": "function"
    },
    {
      "constant": false,
      "inputs": [],
      "name": "placeBid",
      "outputs": [
        {
          "internalType": "bool",
          "name": "success",
          "type": "bool"
        }
      ],
      "payable": true,
      "stateMutability": "payable",
      "type": "function"
    },
    {
      "constant": false,
      "inputs": [],
      "name": "getTitle",
      "outputs": [
        {
          "internalType": "string",
          "name": "",
          "type": "string"
        }
      ],
      "payable": false,
      "stateMutability": "nonpayable",
      "type": "function"
    },
    {
      "constant": false,
      "inputs": [],
      "name": "getPrice",
      "outputs": [
        {
          "internalType": "uint256",
          "name": "",
          "type": "uint256"
        }
      ],
      "payable": false,
      "stateMutability": "nonpayable",
      "type": "function"
    },
    {
      "constant": false,
      "inputs": [],
      "name": "cancelAuction",
      "outputs": [
        {
          "internalType": "bool",
          "name": "success",
          "type": "bool"
        }
      ],
      "payable": false,
      "stateMutability": "nonpayable",
      "type": "function"
    },
    {
      "constant": false,
      "inputs": [],
      "name": "withdraw",
      "outputs": [],
      "payable": false,
      "stateMutability": "nonpayable",
      "type": "function"
    }
  ],
  "bytecode": "0x608060405260006006553480156200001657600080fd5b5060405162000fad38038062000fad833981810160405260608110156200003c57600080fd5b8101908080519060200190929190805160405193929190846401000000008211156200006757600080fd5b838201915060208201858111156200007e57600080fd5b82518660018202830111640100000000821117156200009c57600080fd5b8083526020830192505050908051906020019080838360005b83811015620000d2578082015181840152602081019050620000b5565b50505050905090810190601f168015620001005780820380516001836020036101000a031916815260200191505b5060405260200180519060200190929190505050600073ffffffffffffffffffffffffffffffffffffffff168373ffffffffffffffffffffffffffffffffffffffff1614156200014f57600080fd5b6000825114156200015f57600080fd5b60008110156200016e57600080fd5b816009908051906020019062000186929190620001d7565b5080600781905550826000806101000a81548173ffffffffffffffffffffffffffffffffffffffff021916908373ffffffffffffffffffffffffffffffffffffffff16021790555050505062000286565b828054600181600116156101000203166002900490600052602060002090601f016020900481019282601f106200021a57805160ff19168380011785556200024b565b828001600101855582156200024b579182015b828111156200024a5782518255916020019190600101906200022d565b5b5090506200025a91906200025e565b5090565b6200028391905b808211156200027f57600081600090555060010162000265565b5090565b90565b610d1780620002966000396000f3fe6080604052600436106100f35760003560e01c806391f901571161008a578063d6fbf20211610059578063d6fbf2021461044c578063ecfc7ecc14610477578063f5b56c5614610499578063ff3c1a8f146104c4576100f3565b806391f90157146102d557806398d5fdca1461032c578063c623674f14610357578063ce10cf80146103e7576100f3565b80634979440a116100c65780634979440a146101945780634a79d50c146101bf5780638da5cb5b1461024f5780638fa8b790146102a6576100f3565b8063083c6323146100f85780633ccfd60b146101235780633f9942ff1461013a57806348cd4cb114610169575b600080fd5b34801561010457600080fd5b5061010d610554565b6040518082815260200191505060405180910390f35b34801561012f57600080fd5b5061013861055a565b005b34801561014657600080fd5b5061014f61073b565b604051808215151515815260200191505060405180910390f35b34801561017557600080fd5b5061017e61074e565b6040518082815260200191505060405180910390f35b3480156101a057600080fd5b506101a9610754565b6040518082815260200191505060405180910390f35b3480156101cb57600080fd5b506101d46107bd565b6040518080602001828103825283818151815260200191508051906020019080838360005b838110156102145780820151818401526020810190506101f9565b50505050905090810190601f1680156102415780820380516001836020036101000a031916815260200191505b509250505060405180910390f35b34801561025b57600080fd5b5061026461085b565b604051808273ffffffffffffffffffffffffffffffffffffffff1673ffffffffffffffffffffffffffffffffffffffff16815260200191505060405180910390f35b3480156102b257600080fd5b506102bb610880565b604051808215151515815260200191505060405180910390f35b3480156102e157600080fd5b506102ea610952565b604051808273ffffffffffffffffffffffffffffffffffffffff1673ffffffffffffffffffffffffffffffffffffffff16815260200191505060405180910390f35b34801561033857600080fd5b50610341610978565b6040518082815260200191505060405180910390f35b34801561036357600080fd5b5061036c610982565b6040518080602001828103825283818151815260200191508051906020019080838360005b838110156103ac578082015181840152602081019050610391565b50505050905090810190601f1680156103d95780820380516001836020036101000a031916815260200191505b509250505060405180910390f35b3480156103f357600080fd5b506104366004803603602081101561040a57600080fd5b81019080803573ffffffffffffffffffffffffffffffffffffffff169060200190929190505050610a20565b6040518082815260200191505060405180910390f35b34801561045857600080fd5b50610461610a38565b6040518082815260200191505060405180910390f35b61047f610a3e565b604051808215151515815260200191505060405180910390f35b3480156104a557600080fd5b506104ae610c3a565b6040518082815260200191505060405180910390f35b3480156104d057600080fd5b506104d9610c40565b6040518080602001828103825283818151815260200191508051906020019080838360005b838110156105195780820151818401526020810190506104fe565b50505050905090810190601f1680156105465780820380516001836020036101000a031916815260200191505b509250505060405180910390f35b60025481565b6000806000809054906101000a900473ffffffffffffffffffffffffffffffffffffffff1673ffffffffffffffffffffffffffffffffffffffff163373ffffffffffffffffffffffffffffffffffffffff1614156105e0576000809054906101000a900473ffffffffffffffffffffffffffffffffffffffff16915060065490506106ab565b600460019054906101000a900473ffffffffffffffffffffffffffffffffffffffff1673ffffffffffffffffffffffffffffffffffffffff163373ffffffffffffffffffffffffffffffffffffffff16141561066457600460019054906101000a900473ffffffffffffffffffffffffffffffffffffffff169150600090506106aa565b339150600560003373ffffffffffffffffffffffffffffffffffffffff1673ffffffffffffffffffffffffffffffffffffffff1681526020019081526020016000205490505b5b6000600560003373ffffffffffffffffffffffffffffffffffffffff1673ffffffffffffffffffffffffffffffffffffffff168152602001908152602001600020819055508173ffffffffffffffffffffffffffffffffffffffff166108fc829081150290604051600060405180830381858888f19350505050158015610736573d6000803e3d6000fd5b505050565b600460009054906101000a900460ff1681565b60015481565b600060056000600460019054906101000a900473ffffffffffffffffffffffffffffffffffffffff1673ffffffffffffffffffffffffffffffffffffffff1673ffffffffffffffffffffffffffffffffffffffff16815260200190815260200160002054905090565b60098054600181600116156101000203166002900480601f0160208091040260200160405190810160405280929190818152602001828054600181600116156101000203166002900480156108535780601f1061082857610100808354040283529160200191610853565b820191906000526020600020905b81548152906001019060200180831161083657829003601f168201915b505050505081565b6000809054906101000a900473ffffffffffffffffffffffffffffffffffffffff1681565b60008060009054906101000a900473ffffffffffffffffffffffffffffffffffffffff1673ffffffffffffffffffffffffffffffffffffffff163373ffffffffffffffffffffffffffffffffffffffff16146108db57600080fd5b6002544311156108ea57600080fd5b600460009054906101000a900460ff161561090457600080fd5b6001600460006101000a81548160ff0219169083151502179055507f462b6ca7f632601af1295aeb320851f50e8e630a309173f23535845ea4bfb3b960405160405180910390a16001905090565b600460019054906101000a900473ffffffffffffffffffffffffffffffffffffffff1681565b6000600754905090565b60038054600181600116156101000203166002900480601f016020809104026020016040519081016040528092919081815260200182805460018160011615610100020316600290048015610a185780601f106109ed57610100808354040283529160200191610a18565b820191906000526020600020905b8154815290600101906020018083116109fb57829003601f168201915b505050505081565b60056020528060005260406000206000915090505481565b60075481565b6000600460009054906101000a900460ff1615610a5a57600080fd5b6000809054906101000a900473ffffffffffffffffffffffffffffffffffffffff1673ffffffffffffffffffffffffffffffffffffffff163373ffffffffffffffffffffffffffffffffffffffff161415610ab457600080fd5b346007541115610ac357600080fd5b6000341415610ad157600080fd5b34600560003373ffffffffffffffffffffffffffffffffffffffff1673ffffffffffffffffffffffffffffffffffffffff16815260200190815260200160002081905550346006541015610b68573460068190555033600460016101000a81548173ffffffffffffffffffffffffffffffffffffffff021916908373ffffffffffffffffffffffffffffffffffffffff1602179055505b7f49e60d8d833f1250f6ede154509b047fe77c1eae57655e8176675b5f91af7b0a3334600460019054906101000a900473ffffffffffffffffffffffffffffffffffffffff16600654604051808573ffffffffffffffffffffffffffffffffffffffff1673ffffffffffffffffffffffffffffffffffffffff1681526020018481526020018373ffffffffffffffffffffffffffffffffffffffff1673ffffffffffffffffffffffffffffffffffffffff16815260200182815260200194505050505060405180910390a16001905090565b60065481565b606060098054600181600116156101000203166002900480601f016020809104026020016040519081016040528092919081815260200182805460018160011615610100020316600290048015610cd85780601f10610cad57610100808354040283529160200191610cd8565b820191906000526020600020905b815481529060010190602001808311610cbb57829003601f168201915b505050505090509056fea265627a7a72315820494e2b6cda558083335ae72b089b7d4dcbd6982941461e6527733eccb7643ade64736f6c63430005100032",
  "source": "pragma solidity >=0.4.22 <0.9.0;\r\n// pragma solidity ^0.4.8;\r\ncontract Auction {\r\n    address payable public owner;\r\n    \r\n    uint public startBlock;\r\n    uint public endBlock;\r\n    \r\n    string public ipfsHash;\r\n    bool public canceled;\r\n    \r\n    address payable public highestBidder;\r\n    mapping(address => uint256) public fundsByBidder;\r\n    uint public highestBindingBid = 0;\r\n    uint public startingPrice;   // Starting price of the auction\r\n    bool ownerHasWithdrawn;\r\n    \r\n    string public title;\r\n    \r\n    // constructor (address  _owner, uint _startBlock, uint _endBlock, string  memory _ipfsHash, string  memory _title, uint _startingPrice) public {\r\n    //     if (_startBlock >= _endBlock) revert();\r\n    //     if (_startBlock < block.number) revert();\r\n    //     if (_owner == address(0)) revert();\r\n    //     if (bytes(_ipfsHash).length == 0) revert();\r\n    //     if (bytes(_title).length == 0) revert();\r\n    //     if (_startingPrice<0) revert();\r\n        \r\n    //     title = _title;\r\n    //     startingPrice = _startingPrice;\r\n    //     owner = _owner;\r\n    //     startBlock = _startBlock;\r\n    //     endBlock = _endBlock;\r\n    //     ipfsHash = _ipfsHash;\r\n    // }\r\n\r\n    constructor (address payable _owner, string  memory _title, uint _startingPrice) public {\r\n        if (_owner == address(0)) revert();\r\n        if (bytes(_title).length == 0) revert();\r\n        if (_startingPrice<0) revert();\r\n        \r\n        title = _title;\r\n        startingPrice = _startingPrice;\r\n        owner = _owner;\r\n    }\r\n\r\n    function getHighestBid()\r\n        public view\r\n        returns (uint)\r\n    {\r\n        return fundsByBidder[highestBidder];\r\n    }\r\n    \r\n    event LogBid(address bidder, uint bid, address highestBidder, uint highestBindingBid);\r\n    event LogWithdrawal(address withdrawer, address withdrawalAccount, uint amount);\r\n    event LogCanceled();\r\n    \r\n    function placeBid ()\r\n        payable\r\n        // onlyAfterStart\r\n        // onlyBeforeEnd\r\n        onlyNotCanceled\r\n        onlyNotOwner\r\n        onlyHigherprice\r\n        public returns (bool success) {\r\n            if (msg.value == 0) revert();\r\n            // uint highestBid = fundsByBidder[highestBidder];\r\n            fundsByBidder[msg.sender] = msg.value;\r\n            \r\n            if (highestBindingBid<msg.value){\r\n                highestBindingBid = msg.value;\r\n                highestBidder = msg.sender;\r\n            }\r\n            emit LogBid(msg.sender, msg.value, highestBidder, highestBindingBid);\r\n\r\n            return true;\r\n        }\r\n    \r\n    function getTitle()\r\n        public\r\n        returns (string memory )\r\n    {\r\n        return title;\r\n    }\r\n\r\n    function getPrice()\r\n        public\r\n        returns (uint)\r\n    {\r\n        return startingPrice;\r\n    }\r\n\r\n    function cancelAuction()\r\n        public\r\n        onlyOwner\r\n        onlyBeforeEnd\r\n        onlyNotCanceled\r\n        returns (bool success)\r\n    {\r\n        canceled = true;\r\n        emit LogCanceled();\r\n        return true;\r\n    }\r\n    \r\n    // function withdraw()\r\n    //     public\r\n    //     onlyEndedOrCanceled\r\n    //     returns (bool success)\r\n    // {\r\n    //     address withdrawalAccount;\r\n    //     uint withdrawalAmount;\r\n\r\n    //     if (canceled) {\r\n    //         // if the auction was canceled, everyone should simply be allowed to withdraw their funds\r\n    //         withdrawalAccount = msg.sender;\r\n    //         withdrawalAmount = fundsByBidder[withdrawalAccount];\r\n\r\n    //     } else {\r\n    //         // the auction finished without being canceled\r\n\r\n    //         if (msg.sender == owner) {\r\n    //             // the auction's owner should be allowed to withdraw the highestBindingBid\r\n    //             withdrawalAccount = highestBidder;\r\n    //             withdrawalAmount = highestBindingBid;\r\n    //             ownerHasWithdrawn = true;\r\n\r\n    //         } \r\n    //         else if (msg.sender == highestBidder) {\r\n    //            revert();\r\n    //         } \r\n    //         else {\r\n    //             // anyone who participated but did not win the auction should be allowed to withdraw\r\n    //             // the full amount of their funds\r\n    //             withdrawalAccount = msg.sender;\r\n    //             withdrawalAmount = fundsByBidder[withdrawalAccount];\r\n    //         }\r\n    //     }\r\n\r\n    //     if (withdrawalAmount == 0) revert();\r\n\r\n    //     fundsByBidder[withdrawalAccount] -= withdrawalAmount;\r\n\r\n    //     // send the funds\r\n    //     if (!msg.sender.send(withdrawalAmount)) revert();\r\n\r\n    //     emit LogWithdrawal(msg.sender, withdrawalAccount, withdrawalAmount);\r\n\r\n    //     return true;\r\n    // }\r\n\r\n    function withdraw() public{\r\n        //the owner and bidders can finalize the auction.\r\n        // require(msg.sender == owner || bids[msg.sender] > 0);\r\n\r\n        address payable recipiant;\r\n        uint value;\r\n\r\n        // owner can get highestPrice\r\n        if(msg.sender == owner){\r\n            recipiant = owner;\r\n            value = highestBindingBid;\r\n        }\r\n        // highestBidder can get no money\r\n        else if (msg.sender == highestBidder){\r\n            recipiant = highestBidder;\r\n            value = 0;\r\n        }\r\n        // Other bidders can get back the money \r\n        else {\r\n            recipiant = msg.sender;\r\n            value = fundsByBidder[msg.sender];\r\n        }\r\n        // initialize the value\r\n        fundsByBidder[msg.sender] = 0;\r\n        recipiant.transfer(value);\r\n    }\r\n\r\n    \r\n    modifier onlyOwner {\r\n        if (msg.sender != owner) revert();\r\n        _;\r\n    }\r\n\r\n    modifier onlyNotOwner {\r\n        if (msg.sender == owner) revert();\r\n        _;\r\n    }\r\n\r\n    // modifier onlyAfterStart {\r\n    //     if (block.number < startBlock) revert();\r\n    //     _;\r\n    // }\r\n\r\n    modifier onlyBeforeEnd {\r\n        if (block.number > endBlock) revert();\r\n        _;\r\n    }\r\n\r\n    modifier onlyNotCanceled {\r\n        if (canceled) revert();\r\n        _;\r\n    }\r\n\r\n    modifier onlyEndedOrCanceled {\r\n        if (block.number < endBlock && !canceled) revert();\r\n        _;\r\n    }\r\n    \r\n    modifier onlyHigherprice {\r\n        if (startingPrice > msg.value) revert();\r\n        _;\r\n    }\r\n}",
  "sourcePath": "/mnt/c/Users/swast/Desktop/IIITD 4th Year/IBC/ProjectGit/Auction-System/react-dapp/contracts/Auction.sol",
  "compiler": {
    "name": "solc",
    "version": "0.5.16+commit.9c3226ce.Emscripten.clang"
  },
  "schemaVersion": "3.4.3",
  "updatedAt": "2021-12-12T17:57:43.110Z",
  "devdoc": {
    "methods": {}
  },
  "userdoc": {
    "methods": {}
  }
}