{
  "contractName": "Auction",
  "abi": [
    {
      "inputs": [
        {
          "internalType": "address",
          "name": "_owner",
          "type": "address"
        },
        {
          "internalType": "string",
          "name": "_title",
          "type": "string"
        },
        {
          "internalType": "uint256",
          "name": "_startingPrice",
          "type": "uint256"
        }
      ],
      "payable": false,
      "stateMutability": "nonpayable",
      "type": "constructor"
    },
    {
      "anonymous": false,
      "inputs": [
        {
          "indexed": false,
          "internalType": "address",
          "name": "bidder",
          "type": "address"
        },
        {
          "indexed": false,
          "internalType": "uint256",
          "name": "bid",
          "type": "uint256"
        },
        {
          "indexed": false,
          "internalType": "address",
          "name": "highestBidder",
          "type": "address"
        },
        {
          "indexed": false,
          "internalType": "uint256",
          "name": "highestBindingBid",
          "type": "uint256"
        }
      ],
      "name": "LogBid",
      "type": "event"
    },
    {
      "anonymous": false,
      "inputs": [],
      "name": "LogCanceled",
      "type": "event"
    },
    {
      "anonymous": false,
      "inputs": [
        {
          "indexed": false,
          "internalType": "address",
          "name": "withdrawer",
          "type": "address"
        },
        {
          "indexed": false,
          "internalType": "address",
          "name": "withdrawalAccount",
          "type": "address"
        },
        {
          "indexed": false,
          "internalType": "uint256",
          "name": "amount",
          "type": "uint256"
        }
      ],
      "name": "LogWithdrawal",
      "type": "event"
    },
    {
      "constant": true,
      "inputs": [],
      "name": "canceled",
      "outputs": [
        {
          "internalType": "bool",
          "name": "",
          "type": "bool"
        }
      ],
      "payable": false,
      "stateMutability": "view",
      "type": "function"
    },
    {
      "constant": true,
      "inputs": [],
      "name": "endBlock",
      "outputs": [
        {
          "internalType": "uint256",
          "name": "",
          "type": "uint256"
        }
      ],
      "payable": false,
      "stateMutability": "view",
      "type": "function"
    },
    {
      "constant": true,
      "inputs": [
        {
          "internalType": "address",
          "name": "",
          "type": "address"
        }
      ],
      "name": "fundsByBidder",
      "outputs": [
        {
          "internalType": "uint256",
          "name": "",
          "type": "uint256"
        }
      ],
      "payable": false,
      "stateMutability": "view",
      "type": "function"
    },
    {
      "constant": true,
      "inputs": [],
      "name": "highestBidder",
      "outputs": [
        {
          "internalType": "address",
          "name": "",
          "type": "address"
        }
      ],
      "payable": false,
      "stateMutability": "view",
      "type": "function"
    },
    {
      "constant": true,
      "inputs": [],
      "name": "highestBindingBid",
      "outputs": [
        {
          "internalType": "uint256",
          "name": "",
          "type": "uint256"
        }
      ],
      "payable": false,
      "stateMutability": "view",
      "type": "function"
    },
    {
      "constant": true,
      "inputs": [],
      "name": "ipfsHash",
      "outputs": [
        {
          "internalType": "string",
          "name": "",
          "type": "string"
        }
      ],
      "payable": false,
      "stateMutability": "view",
      "type": "function"
    },
    {
      "constant": true,
      "inputs": [],
      "name": "owner",
      "outputs": [
        {
          "internalType": "address",
          "name": "",
          "type": "address"
        }
      ],
      "payable": false,
      "stateMutability": "view",
      "type": "function"
    },
    {
      "constant": true,
      "inputs": [],
      "name": "startBlock",
      "outputs": [
        {
          "internalType": "uint256",
          "name": "",
          "type": "uint256"
        }
      ],
      "payable": false,
      "stateMutability": "view",
      "type": "function"
    },
    {
      "constant": true,
      "inputs": [],
      "name": "startingPrice",
      "outputs": [
        {
          "internalType": "uint256",
          "name": "",
          "type": "uint256"
        }
      ],
      "payable": false,
      "stateMutability": "view",
      "type": "function"
    },
    {
      "constant": true,
      "inputs": [],
      "name": "title",
      "outputs": [
        {
          "internalType": "string",
          "name": "",
          "type": "string"
        }
      ],
      "payable": false,
      "stateMutability": "view",
      "type": "function"
    },
    {
      "constant": true,
      "inputs": [],
      "name": "getHighestBid",
      "outputs": [
        {
          "internalType": "uint256",
          "name": "",
          "type": "uint256"
        }
      ],
      "payable": false,
      "stateMutability": "view",
      "type": "function"
    },
    {
      "constant": false,
      "inputs": [],
      "name": "placeBid",
      "outputs": [
        {
          "internalType": "bool",
          "name": "success",
          "type": "bool"
        }
      ],
      "payable": true,
      "stateMutability": "payable",
      "type": "function"
    },
    {
      "constant": false,
      "inputs": [],
      "name": "cancelAuction",
      "outputs": [
        {
          "internalType": "bool",
          "name": "success",
          "type": "bool"
        }
      ],
      "payable": false,
      "stateMutability": "nonpayable",
      "type": "function"
    },
    {
      "constant": false,
      "inputs": [],
      "name": "withdraw",
      "outputs": [
        {
          "internalType": "bool",
          "name": "success",
          "type": "bool"
        }
      ],
      "payable": false,
      "stateMutability": "nonpayable",
      "type": "function"
    }
  ],
  "bytecode": "0x608060405260006006553480156200001657600080fd5b5060405162000f7538038062000f75833981810160405260608110156200003c57600080fd5b8101908080519060200190929190805160405193929190846401000000008211156200006757600080fd5b838201915060208201858111156200007e57600080fd5b82518660018202830111640100000000821117156200009c57600080fd5b8083526020830192505050908051906020019080838360005b83811015620000d2578082015181840152602081019050620000b5565b50505050905090810190601f168015620001005780820380516001836020036101000a031916815260200191505b5060405260200180519060200190929190505050600073ffffffffffffffffffffffffffffffffffffffff168373ffffffffffffffffffffffffffffffffffffffff1614156200014f57600080fd5b6000825114156200015f57600080fd5b60008110156200016e57600080fd5b816009908051906020019062000186929190620001d7565b5080600781905550826000806101000a81548173ffffffffffffffffffffffffffffffffffffffff021916908373ffffffffffffffffffffffffffffffffffffffff16021790555050505062000286565b828054600181600116156101000203166002900490600052602060002090601f016020900481019282601f106200021a57805160ff19168380011785556200024b565b828001600101855582156200024b579182015b828111156200024a5782518255916020019190600101906200022d565b5b5090506200025a91906200025e565b5090565b6200028391905b808211156200027f57600081600090555060010162000265565b5090565b90565b610cdf80620002966000396000f3fe6080604052600436106100dd5760003560e01c80638fa8b7901161007f578063ce10cf8011610059578063ce10cf80146103be578063d6fbf20214610423578063ecfc7ecc1461044e578063f5b56c5614610470576100dd565b80638fa8b790146102a857806391f90157146102d7578063c623674f1461032e576100dd565b806348cd4cb1116100bb57806348cd4cb11461016b5780634979440a146101965780634a79d50c146101c15780638da5cb5b14610251576100dd565b8063083c6323146100e25780633ccfd60b1461010d5780633f9942ff1461013c575b600080fd5b3480156100ee57600080fd5b506100f761049b565b6040518082815260200191505060405180910390f35b34801561011957600080fd5b506101226104a1565b604051808215151515815260200191505060405180910390f35b34801561014857600080fd5b506101516107af565b604051808215151515815260200191505060405180910390f35b34801561017757600080fd5b506101806107c2565b6040518082815260200191505060405180910390f35b3480156101a257600080fd5b506101ab6107c8565b6040518082815260200191505060405180910390f35b3480156101cd57600080fd5b506101d6610831565b6040518080602001828103825283818151815260200191508051906020019080838360005b838110156102165780820151818401526020810190506101fb565b50505050905090810190601f1680156102435780820380516001836020036101000a031916815260200191505b509250505060405180910390f35b34801561025d57600080fd5b506102666108cf565b604051808273ffffffffffffffffffffffffffffffffffffffff1673ffffffffffffffffffffffffffffffffffffffff16815260200191505060405180910390f35b3480156102b457600080fd5b506102bd6108f4565b604051808215151515815260200191505060405180910390f35b3480156102e357600080fd5b506102ec6109c6565b604051808273ffffffffffffffffffffffffffffffffffffffff1673ffffffffffffffffffffffffffffffffffffffff16815260200191505060405180910390f35b34801561033a57600080fd5b506103436109ec565b6040518080602001828103825283818151815260200191508051906020019080838360005b83811015610383578082015181840152602081019050610368565b50505050905090810190601f1680156103b05780820380516001836020036101000a031916815260200191505b509250505060405180910390f35b3480156103ca57600080fd5b5061040d600480360360208110156103e157600080fd5b81019080803573ffffffffffffffffffffffffffffffffffffffff169060200190929190505050610a8a565b6040518082815260200191505060405180910390f35b34801561042f57600080fd5b50610438610aa2565b6040518082815260200191505060405180910390f35b610456610aa8565b604051808215151515815260200191505060405180910390f35b34801561047c57600080fd5b50610485610ca4565b6040518082815260200191505060405180910390f35b60025481565b6000600254431080156104c15750600460009054906101000a900460ff16155b156104cb57600080fd5b600080600460009054906101000a900460ff161561052d57339150600560008373ffffffffffffffffffffffffffffffffffffffff1673ffffffffffffffffffffffffffffffffffffffff16815260200190815260200160002054905061066e565b6000809054906101000a900473ffffffffffffffffffffffffffffffffffffffff1673ffffffffffffffffffffffffffffffffffffffff163373ffffffffffffffffffffffffffffffffffffffff1614156105cc57600460019054906101000a900473ffffffffffffffffffffffffffffffffffffffff16915060065490506001600860006101000a81548160ff02191690831515021790555061066d565b600460019054906101000a900473ffffffffffffffffffffffffffffffffffffffff1673ffffffffffffffffffffffffffffffffffffffff163373ffffffffffffffffffffffffffffffffffffffff16141561062757600080fd5b339150600560008373ffffffffffffffffffffffffffffffffffffffff1673ffffffffffffffffffffffffffffffffffffffff1681526020019081526020016000205490505b5b600081141561067c57600080fd5b80600560008473ffffffffffffffffffffffffffffffffffffffff1673ffffffffffffffffffffffffffffffffffffffff168152602001908152602001600020600082825403925050819055503373ffffffffffffffffffffffffffffffffffffffff166108fc829081150290604051600060405180830381858888f1935050505061070757600080fd5b7f0ec497a8ae5b1ba29c60470ef651def995fac3deebbdcc56c47a4e5f51a4c2bd338383604051808473ffffffffffffffffffffffffffffffffffffffff1673ffffffffffffffffffffffffffffffffffffffff1681526020018373ffffffffffffffffffffffffffffffffffffffff1673ffffffffffffffffffffffffffffffffffffffff168152602001828152602001935050505060405180910390a160019250505090565b600460009054906101000a900460ff1681565b60015481565b600060056000600460019054906101000a900473ffffffffffffffffffffffffffffffffffffffff1673ffffffffffffffffffffffffffffffffffffffff1673ffffffffffffffffffffffffffffffffffffffff16815260200190815260200160002054905090565b60098054600181600116156101000203166002900480601f0160208091040260200160405190810160405280929190818152602001828054600181600116156101000203166002900480156108c75780601f1061089c576101008083540402835291602001916108c7565b820191906000526020600020905b8154815290600101906020018083116108aa57829003601f168201915b505050505081565b6000809054906101000a900473ffffffffffffffffffffffffffffffffffffffff1681565b60008060009054906101000a900473ffffffffffffffffffffffffffffffffffffffff1673ffffffffffffffffffffffffffffffffffffffff163373ffffffffffffffffffffffffffffffffffffffff161461094f57600080fd5b60025443111561095e57600080fd5b600460009054906101000a900460ff161561097857600080fd5b6001600460006101000a81548160ff0219169083151502179055507f462b6ca7f632601af1295aeb320851f50e8e630a309173f23535845ea4bfb3b960405160405180910390a16001905090565b600460019054906101000a900473ffffffffffffffffffffffffffffffffffffffff1681565b60038054600181600116156101000203166002900480601f016020809104026020016040519081016040528092919081815260200182805460018160011615610100020316600290048015610a825780601f10610a5757610100808354040283529160200191610a82565b820191906000526020600020905b815481529060010190602001808311610a6557829003601f168201915b505050505081565b60056020528060005260406000206000915090505481565b60075481565b6000600460009054906101000a900460ff1615610ac457600080fd5b6000809054906101000a900473ffffffffffffffffffffffffffffffffffffffff1673ffffffffffffffffffffffffffffffffffffffff163373ffffffffffffffffffffffffffffffffffffffff161415610b1e57600080fd5b346007541115610b2d57600080fd5b6000341415610b3b57600080fd5b34600560003373ffffffffffffffffffffffffffffffffffffffff1673ffffffffffffffffffffffffffffffffffffffff16815260200190815260200160002081905550346006541015610bd2573460068190555033600460016101000a81548173ffffffffffffffffffffffffffffffffffffffff021916908373ffffffffffffffffffffffffffffffffffffffff1602179055505b7f49e60d8d833f1250f6ede154509b047fe77c1eae57655e8176675b5f91af7b0a3334600460019054906101000a900473ffffffffffffffffffffffffffffffffffffffff16600654604051808573ffffffffffffffffffffffffffffffffffffffff1673ffffffffffffffffffffffffffffffffffffffff1681526020018481526020018373ffffffffffffffffffffffffffffffffffffffff1673ffffffffffffffffffffffffffffffffffffffff16815260200182815260200194505050505060405180910390a16001905090565b6006548156fea265627a7a72315820ede94f4084a328b62fea6376c949858ffe749ff84bef41584327471e70ab6d0b64736f6c63430005100032",
  "source": "pragma solidity >=0.4.22 <0.9.0;\n// pragma solidity ^0.4.8;\ncontract Auction {\n    address public owner;\n    \n    uint public startBlock;\n    uint public endBlock;\n    \n    string public ipfsHash;\n    bool public canceled;\n    \n    address public highestBidder;\n    mapping(address => uint256) public fundsByBidder;\n    uint public highestBindingBid = 0;\n    uint public startingPrice;   // Starting price of the auction\n    bool ownerHasWithdrawn;\n    \n    string public title;\n    \n    // constructor (address  _owner, uint _startBlock, uint _endBlock, string  memory _ipfsHash, string  memory _title, uint _startingPrice) public {\n    //     if (_startBlock >= _endBlock) revert();\n    //     if (_startBlock < block.number) revert();\n    //     if (_owner == address(0)) revert();\n    //     if (bytes(_ipfsHash).length == 0) revert();\n    //     if (bytes(_title).length == 0) revert();\n    //     if (_startingPrice<0) revert();\n        \n    //     title = _title;\n    //     startingPrice = _startingPrice;\n    //     owner = _owner;\n    //     startBlock = _startBlock;\n    //     endBlock = _endBlock;\n    //     ipfsHash = _ipfsHash;\n    // }\n\n    constructor (address  _owner, string  memory _title, uint _startingPrice) public {\n        if (_owner == address(0)) revert();\n        if (bytes(_title).length == 0) revert();\n        if (_startingPrice<0) revert();\n        \n        title = _title;\n        startingPrice = _startingPrice;\n        owner = _owner;\n    }\n\n    function getHighestBid()\n        public view\n        returns (uint)\n    {\n        return fundsByBidder[highestBidder];\n    }\n    \n    event LogBid(address bidder, uint bid, address highestBidder, uint highestBindingBid);\n    event LogWithdrawal(address withdrawer, address withdrawalAccount, uint amount);\n    event LogCanceled();\n    \n    function placeBid ()\n        payable\n        // onlyAfterStart\n        // onlyBeforeEnd\n        onlyNotCanceled\n        onlyNotOwner\n        onlyHigherprice\n        public returns (bool success) {\n            if (msg.value == 0) revert();\n            // uint highestBid = fundsByBidder[highestBidder];\n            fundsByBidder[msg.sender] = msg.value;\n            \n            if (highestBindingBid<msg.value){\n                highestBindingBid = msg.value;\n                highestBidder = msg.sender;\n            }\n            emit LogBid(msg.sender, msg.value, highestBidder, highestBindingBid);\n            return true;\n        }\n    \n    function cancelAuction()\n        public\n        onlyOwner\n        onlyBeforeEnd\n        onlyNotCanceled\n        returns (bool success)\n    {\n        canceled = true;\n        emit LogCanceled();\n        return true;\n    }\n    \n    function withdraw()\n        public\n        onlyEndedOrCanceled\n        returns (bool success)\n    {\n        address withdrawalAccount;\n        uint withdrawalAmount;\n\n        if (canceled) {\n            // if the auction was canceled, everyone should simply be allowed to withdraw their funds\n            withdrawalAccount = msg.sender;\n            withdrawalAmount = fundsByBidder[withdrawalAccount];\n\n        } else {\n            // the auction finished without being canceled\n\n            if (msg.sender == owner) {\n                // the auction's owner should be allowed to withdraw the highestBindingBid\n                withdrawalAccount = highestBidder;\n                withdrawalAmount = highestBindingBid;\n                ownerHasWithdrawn = true;\n\n            } \n            else if (msg.sender == highestBidder) {\n               revert();\n            } \n            else {\n                // anyone who participated but did not win the auction should be allowed to withdraw\n                // the full amount of their funds\n                withdrawalAccount = msg.sender;\n                withdrawalAmount = fundsByBidder[withdrawalAccount];\n            }\n        }\n\n        if (withdrawalAmount == 0) revert();\n\n        fundsByBidder[withdrawalAccount] -= withdrawalAmount;\n\n        // send the funds\n        if (!msg.sender.send(withdrawalAmount)) revert();\n\n        emit LogWithdrawal(msg.sender, withdrawalAccount, withdrawalAmount);\n\n        return true;\n    }\n\n    \n    modifier onlyOwner {\n        if (msg.sender != owner) revert();\n        _;\n    }\n\n    modifier onlyNotOwner {\n        if (msg.sender == owner) revert();\n        _;\n    }\n\n    // modifier onlyAfterStart {\n    //     if (block.number < startBlock) revert();\n    //     _;\n    // }\n\n    modifier onlyBeforeEnd {\n        if (block.number > endBlock) revert();\n        _;\n    }\n\n    modifier onlyNotCanceled {\n        if (canceled) revert();\n        _;\n    }\n\n    modifier onlyEndedOrCanceled {\n        if (block.number < endBlock && !canceled) revert();\n        _;\n    }\n    \n    modifier onlyHigherprice {\n        if (startingPrice > msg.value) revert();\n        _;\n    }\n}",
  "sourcePath": "/Users/teenvan/IIITD/Monsoon 2021/IBC/Auction-System/react-dapp/contracts/Auction.sol",
  "compiler": {
    "name": "solc",
    "version": "0.5.16+commit.9c3226ce.Emscripten.clang"
  },
  "schemaVersion": "3.4.3",
  "updatedAt": "2021-12-11T14:51:10.655Z",
  "devdoc": {
    "methods": {}
  },
  "userdoc": {
    "methods": {}
  }
}