{
  "contractName": "Auction",
  "abi": [
    {
      "inputs": [
        {
          "internalType": "address",
          "name": "_owner",
          "type": "address"
        },
        {
          "internalType": "string",
          "name": "_title",
          "type": "string"
        },
        {
          "internalType": "uint256",
          "name": "_startingPrice",
          "type": "uint256"
        }
      ],
      "payable": false,
      "stateMutability": "nonpayable",
      "type": "constructor"
    },
    {
      "anonymous": false,
      "inputs": [
        {
          "indexed": false,
          "internalType": "address",
          "name": "bidder",
          "type": "address"
        },
        {
          "indexed": false,
          "internalType": "uint256",
          "name": "bid",
          "type": "uint256"
        },
        {
          "indexed": false,
          "internalType": "address",
          "name": "highestBidder",
          "type": "address"
        },
        {
          "indexed": false,
          "internalType": "uint256",
          "name": "highestBindingBid",
          "type": "uint256"
        }
      ],
      "name": "LogBid",
      "type": "event"
    },
    {
      "anonymous": false,
      "inputs": [],
      "name": "LogCanceled",
      "type": "event"
    },
    {
      "anonymous": false,
      "inputs": [
        {
          "indexed": false,
          "internalType": "address",
          "name": "withdrawer",
          "type": "address"
        },
        {
          "indexed": false,
          "internalType": "address",
          "name": "withdrawalAccount",
          "type": "address"
        },
        {
          "indexed": false,
          "internalType": "uint256",
          "name": "amount",
          "type": "uint256"
        }
      ],
      "name": "LogWithdrawal",
      "type": "event"
    },
    {
      "constant": true,
      "inputs": [],
      "name": "canceled",
      "outputs": [
        {
          "internalType": "bool",
          "name": "",
          "type": "bool"
        }
      ],
      "payable": false,
      "stateMutability": "view",
      "type": "function"
    },
    {
      "constant": true,
      "inputs": [],
      "name": "endBlock",
      "outputs": [
        {
          "internalType": "uint256",
          "name": "",
          "type": "uint256"
        }
      ],
      "payable": false,
      "stateMutability": "view",
      "type": "function"
    },
    {
      "constant": true,
      "inputs": [
        {
          "internalType": "address",
          "name": "",
          "type": "address"
        }
      ],
      "name": "fundsByBidder",
      "outputs": [
        {
          "internalType": "uint256",
          "name": "",
          "type": "uint256"
        }
      ],
      "payable": false,
      "stateMutability": "view",
      "type": "function"
    },
    {
      "constant": true,
      "inputs": [],
      "name": "highestBidder",
      "outputs": [
        {
          "internalType": "address",
          "name": "",
          "type": "address"
        }
      ],
      "payable": false,
      "stateMutability": "view",
      "type": "function"
    },
    {
      "constant": true,
      "inputs": [],
      "name": "highestBindingBid",
      "outputs": [
        {
          "internalType": "uint256",
          "name": "",
          "type": "uint256"
        }
      ],
      "payable": false,
      "stateMutability": "view",
      "type": "function"
    },
    {
      "constant": true,
      "inputs": [],
      "name": "ipfsHash",
      "outputs": [
        {
          "internalType": "string",
          "name": "",
          "type": "string"
        }
      ],
      "payable": false,
      "stateMutability": "view",
      "type": "function"
    },
    {
      "constant": true,
      "inputs": [],
      "name": "owner",
      "outputs": [
        {
          "internalType": "address",
          "name": "",
          "type": "address"
        }
      ],
      "payable": false,
      "stateMutability": "view",
      "type": "function"
    },
    {
      "constant": true,
      "inputs": [],
      "name": "startBlock",
      "outputs": [
        {
          "internalType": "uint256",
          "name": "",
          "type": "uint256"
        }
      ],
      "payable": false,
      "stateMutability": "view",
      "type": "function"
    },
    {
      "constant": true,
      "inputs": [],
      "name": "startingPrice",
      "outputs": [
        {
          "internalType": "uint256",
          "name": "",
          "type": "uint256"
        }
      ],
      "payable": false,
      "stateMutability": "view",
      "type": "function"
    },
    {
      "constant": true,
      "inputs": [],
      "name": "title",
      "outputs": [
        {
          "internalType": "string",
          "name": "",
          "type": "string"
        }
      ],
      "payable": false,
      "stateMutability": "view",
      "type": "function"
    },
    {
      "constant": true,
      "inputs": [],
      "name": "getHighestBid",
      "outputs": [
        {
          "internalType": "uint256",
          "name": "",
          "type": "uint256"
        }
      ],
      "payable": false,
      "stateMutability": "view",
      "type": "function"
    },
    {
      "constant": false,
      "inputs": [],
      "name": "placeBid",
      "outputs": [
        {
          "internalType": "bool",
          "name": "success",
          "type": "bool"
        }
      ],
      "payable": true,
      "stateMutability": "payable",
      "type": "function"
    },
    {
      "constant": false,
      "inputs": [],
      "name": "getTitle",
      "outputs": [
        {
          "internalType": "string",
          "name": "",
          "type": "string"
        }
      ],
      "payable": false,
      "stateMutability": "nonpayable",
      "type": "function"
    },
    {
      "constant": false,
      "inputs": [],
      "name": "getPrice",
      "outputs": [
        {
          "internalType": "uint256",
          "name": "",
          "type": "uint256"
        }
      ],
      "payable": false,
      "stateMutability": "nonpayable",
      "type": "function"
    },
    {
      "constant": false,
      "inputs": [],
      "name": "cancelAuction",
      "outputs": [
        {
          "internalType": "bool",
          "name": "success",
          "type": "bool"
        }
      ],
      "payable": false,
      "stateMutability": "nonpayable",
      "type": "function"
    },
    {
      "constant": false,
      "inputs": [],
      "name": "withdraw",
      "outputs": [
        {
          "internalType": "bool",
          "name": "success",
          "type": "bool"
        }
      ],
      "payable": false,
      "stateMutability": "nonpayable",
      "type": "function"
    }
  ],
  "bytecode": "0x608060405260006006553480156200001657600080fd5b50604051620010f2380380620010f2833981810160405260608110156200003c57600080fd5b8101908080519060200190929190805160405193929190846401000000008211156200006757600080fd5b838201915060208201858111156200007e57600080fd5b82518660018202830111640100000000821117156200009c57600080fd5b8083526020830192505050908051906020019080838360005b83811015620000d2578082015181840152602081019050620000b5565b50505050905090810190601f168015620001005780820380516001836020036101000a031916815260200191505b5060405260200180519060200190929190505050600073ffffffffffffffffffffffffffffffffffffffff168373ffffffffffffffffffffffffffffffffffffffff1614156200014f57600080fd5b6000825114156200015f57600080fd5b60008110156200016e57600080fd5b816009908051906020019062000186929190620001d7565b5080600781905550826000806101000a81548173ffffffffffffffffffffffffffffffffffffffff021916908373ffffffffffffffffffffffffffffffffffffffff16021790555050505062000286565b828054600181600116156101000203166002900490600052602060002090601f016020900481019282601f106200021a57805160ff19168380011785556200024b565b828001600101855582156200024b579182015b828111156200024a5782518255916020019190600101906200022d565b5b5090506200025a91906200025e565b5090565b6200028391905b808211156200027f57600081600090555060010162000265565b5090565b90565b610e5c80620002966000396000f3fe6080604052600436106100f35760003560e01c806391f901571161008a578063d6fbf20211610059578063d6fbf20214610464578063ecfc7ecc1461048f578063f5b56c56146104b1578063ff3c1a8f146104dc576100f3565b806391f90157146102ed57806398d5fdca14610344578063c623674f1461036f578063ce10cf80146103ff576100f3565b80634979440a116100c65780634979440a146101ac5780634a79d50c146101d75780638da5cb5b146102675780638fa8b790146102be576100f3565b8063083c6323146100f85780633ccfd60b146101235780633f9942ff1461015257806348cd4cb114610181575b600080fd5b34801561010457600080fd5b5061010d61056c565b6040518082815260200191505060405180910390f35b34801561012f57600080fd5b50610138610572565b604051808215151515815260200191505060405180910390f35b34801561015e57600080fd5b50610167610880565b604051808215151515815260200191505060405180910390f35b34801561018d57600080fd5b50610196610893565b6040518082815260200191505060405180910390f35b3480156101b857600080fd5b506101c1610899565b6040518082815260200191505060405180910390f35b3480156101e357600080fd5b506101ec610902565b6040518080602001828103825283818151815260200191508051906020019080838360005b8381101561022c578082015181840152602081019050610211565b50505050905090810190601f1680156102595780820380516001836020036101000a031916815260200191505b509250505060405180910390f35b34801561027357600080fd5b5061027c6109a0565b604051808273ffffffffffffffffffffffffffffffffffffffff1673ffffffffffffffffffffffffffffffffffffffff16815260200191505060405180910390f35b3480156102ca57600080fd5b506102d36109c5565b604051808215151515815260200191505060405180910390f35b3480156102f957600080fd5b50610302610a97565b604051808273ffffffffffffffffffffffffffffffffffffffff1673ffffffffffffffffffffffffffffffffffffffff16815260200191505060405180910390f35b34801561035057600080fd5b50610359610abd565b6040518082815260200191505060405180910390f35b34801561037b57600080fd5b50610384610ac7565b6040518080602001828103825283818151815260200191508051906020019080838360005b838110156103c45780820151818401526020810190506103a9565b50505050905090810190601f1680156103f15780820380516001836020036101000a031916815260200191505b509250505060405180910390f35b34801561040b57600080fd5b5061044e6004803603602081101561042257600080fd5b81019080803573ffffffffffffffffffffffffffffffffffffffff169060200190929190505050610b65565b6040518082815260200191505060405180910390f35b34801561047057600080fd5b50610479610b7d565b6040518082815260200191505060405180910390f35b610497610b83565b604051808215151515815260200191505060405180910390f35b3480156104bd57600080fd5b506104c6610d7f565b6040518082815260200191505060405180910390f35b3480156104e857600080fd5b506104f1610d85565b6040518080602001828103825283818151815260200191508051906020019080838360005b83811015610531578082015181840152602081019050610516565b50505050905090810190601f16801561055e5780820380516001836020036101000a031916815260200191505b509250505060405180910390f35b60025481565b6000600254431080156105925750600460009054906101000a900460ff16155b1561059c57600080fd5b600080600460009054906101000a900460ff16156105fe57339150600560008373ffffffffffffffffffffffffffffffffffffffff1673ffffffffffffffffffffffffffffffffffffffff16815260200190815260200160002054905061073f565b6000809054906101000a900473ffffffffffffffffffffffffffffffffffffffff1673ffffffffffffffffffffffffffffffffffffffff163373ffffffffffffffffffffffffffffffffffffffff16141561069d57600460019054906101000a900473ffffffffffffffffffffffffffffffffffffffff16915060065490506001600860006101000a81548160ff02191690831515021790555061073e565b600460019054906101000a900473ffffffffffffffffffffffffffffffffffffffff1673ffffffffffffffffffffffffffffffffffffffff163373ffffffffffffffffffffffffffffffffffffffff1614156106f857600080fd5b339150600560008373ffffffffffffffffffffffffffffffffffffffff1673ffffffffffffffffffffffffffffffffffffffff1681526020019081526020016000205490505b5b600081141561074d57600080fd5b80600560008473ffffffffffffffffffffffffffffffffffffffff1673ffffffffffffffffffffffffffffffffffffffff168152602001908152602001600020600082825403925050819055503373ffffffffffffffffffffffffffffffffffffffff166108fc829081150290604051600060405180830381858888f193505050506107d857600080fd5b7f0ec497a8ae5b1ba29c60470ef651def995fac3deebbdcc56c47a4e5f51a4c2bd338383604051808473ffffffffffffffffffffffffffffffffffffffff1673ffffffffffffffffffffffffffffffffffffffff1681526020018373ffffffffffffffffffffffffffffffffffffffff1673ffffffffffffffffffffffffffffffffffffffff168152602001828152602001935050505060405180910390a160019250505090565b600460009054906101000a900460ff1681565b60015481565b600060056000600460019054906101000a900473ffffffffffffffffffffffffffffffffffffffff1673ffffffffffffffffffffffffffffffffffffffff1673ffffffffffffffffffffffffffffffffffffffff16815260200190815260200160002054905090565b60098054600181600116156101000203166002900480601f0160208091040260200160405190810160405280929190818152602001828054600181600116156101000203166002900480156109985780601f1061096d57610100808354040283529160200191610998565b820191906000526020600020905b81548152906001019060200180831161097b57829003601f168201915b505050505081565b6000809054906101000a900473ffffffffffffffffffffffffffffffffffffffff1681565b60008060009054906101000a900473ffffffffffffffffffffffffffffffffffffffff1673ffffffffffffffffffffffffffffffffffffffff163373ffffffffffffffffffffffffffffffffffffffff1614610a2057600080fd5b600254431115610a2f57600080fd5b600460009054906101000a900460ff1615610a4957600080fd5b6001600460006101000a81548160ff0219169083151502179055507f462b6ca7f632601af1295aeb320851f50e8e630a309173f23535845ea4bfb3b960405160405180910390a16001905090565b600460019054906101000a900473ffffffffffffffffffffffffffffffffffffffff1681565b6000600754905090565b60038054600181600116156101000203166002900480601f016020809104026020016040519081016040528092919081815260200182805460018160011615610100020316600290048015610b5d5780601f10610b3257610100808354040283529160200191610b5d565b820191906000526020600020905b815481529060010190602001808311610b4057829003601f168201915b505050505081565b60056020528060005260406000206000915090505481565b60075481565b6000600460009054906101000a900460ff1615610b9f57600080fd5b6000809054906101000a900473ffffffffffffffffffffffffffffffffffffffff1673ffffffffffffffffffffffffffffffffffffffff163373ffffffffffffffffffffffffffffffffffffffff161415610bf957600080fd5b346007541115610c0857600080fd5b6000341415610c1657600080fd5b34600560003373ffffffffffffffffffffffffffffffffffffffff1673ffffffffffffffffffffffffffffffffffffffff16815260200190815260200160002081905550346006541015610cad573460068190555033600460016101000a81548173ffffffffffffffffffffffffffffffffffffffff021916908373ffffffffffffffffffffffffffffffffffffffff1602179055505b7f49e60d8d833f1250f6ede154509b047fe77c1eae57655e8176675b5f91af7b0a3334600460019054906101000a900473ffffffffffffffffffffffffffffffffffffffff16600654604051808573ffffffffffffffffffffffffffffffffffffffff1673ffffffffffffffffffffffffffffffffffffffff1681526020018481526020018373ffffffffffffffffffffffffffffffffffffffff1673ffffffffffffffffffffffffffffffffffffffff16815260200182815260200194505050505060405180910390a16001905090565b60065481565b606060098054600181600116156101000203166002900480601f016020809104026020016040519081016040528092919081815260200182805460018160011615610100020316600290048015610e1d5780601f10610df257610100808354040283529160200191610e1d565b820191906000526020600020905b815481529060010190602001808311610e0057829003601f168201915b505050505090509056fea265627a7a723158207e0d73ae9279f1c3a5333f03a49ce64a108e82d4ab9cc7f800b10c7f3eff005264736f6c63430005100032",
  "source": "pragma solidity >=0.4.22 <0.9.0;\r\n// pragma solidity ^0.4.8;\r\ncontract Auction {\r\n    address public owner;\r\n    \r\n    uint public startBlock;\r\n    uint public endBlock;\r\n    \r\n    string public ipfsHash;\r\n    bool public canceled;\r\n    \r\n    address public highestBidder;\r\n    mapping(address => uint256) public fundsByBidder;\r\n    uint public highestBindingBid = 0;\r\n    uint public startingPrice;   // Starting price of the auction\r\n    bool ownerHasWithdrawn;\r\n    \r\n    string public title;\r\n    \r\n    // constructor (address  _owner, uint _startBlock, uint _endBlock, string  memory _ipfsHash, string  memory _title, uint _startingPrice) public {\r\n    //     if (_startBlock >= _endBlock) revert();\r\n    //     if (_startBlock < block.number) revert();\r\n    //     if (_owner == address(0)) revert();\r\n    //     if (bytes(_ipfsHash).length == 0) revert();\r\n    //     if (bytes(_title).length == 0) revert();\r\n    //     if (_startingPrice<0) revert();\r\n        \r\n    //     title = _title;\r\n    //     startingPrice = _startingPrice;\r\n    //     owner = _owner;\r\n    //     startBlock = _startBlock;\r\n    //     endBlock = _endBlock;\r\n    //     ipfsHash = _ipfsHash;\r\n    // }\r\n\r\n    constructor (address  _owner, string  memory _title, uint _startingPrice) public {\r\n        if (_owner == address(0)) revert();\r\n        if (bytes(_title).length == 0) revert();\r\n        if (_startingPrice<0) revert();\r\n        \r\n        title = _title;\r\n        startingPrice = _startingPrice;\r\n        owner = _owner;\r\n    }\r\n\r\n    function getHighestBid()\r\n        public view\r\n        returns (uint)\r\n    {\r\n        return fundsByBidder[highestBidder];\r\n    }\r\n    \r\n    event LogBid(address bidder, uint bid, address highestBidder, uint highestBindingBid);\r\n    event LogWithdrawal(address withdrawer, address withdrawalAccount, uint amount);\r\n    event LogCanceled();\r\n    \r\n    function placeBid ()\r\n        payable\r\n        // onlyAfterStart\r\n        // onlyBeforeEnd\r\n        onlyNotCanceled\r\n        onlyNotOwner\r\n        onlyHigherprice\r\n        public returns (bool success) {\r\n            if (msg.value == 0) revert();\r\n            // uint highestBid = fundsByBidder[highestBidder];\r\n            fundsByBidder[msg.sender] = msg.value;\r\n            \r\n            if (highestBindingBid<msg.value){\r\n                highestBindingBid = msg.value;\r\n                highestBidder = msg.sender;\r\n            }\r\n            emit LogBid(msg.sender, msg.value, highestBidder, highestBindingBid);\r\n            return true;\r\n        }\r\n    \r\n    function getTitle()\r\n        public\r\n        returns (string memory )\r\n    {\r\n        return title;\r\n    }\r\n\r\n    function getPrice()\r\n        public\r\n        returns (uint)\r\n    {\r\n        return startingPrice;\r\n    }\r\n\r\n    function cancelAuction()\r\n        public\r\n        onlyOwner\r\n        onlyBeforeEnd\r\n        onlyNotCanceled\r\n        returns (bool success)\r\n    {\r\n        canceled = true;\r\n        emit LogCanceled();\r\n        return true;\r\n    }\r\n    \r\n    function withdraw()\r\n        public\r\n        onlyEndedOrCanceled\r\n        returns (bool success)\r\n    {\r\n        address withdrawalAccount;\r\n        uint withdrawalAmount;\r\n\r\n        if (canceled) {\r\n            // if the auction was canceled, everyone should simply be allowed to withdraw their funds\r\n            withdrawalAccount = msg.sender;\r\n            withdrawalAmount = fundsByBidder[withdrawalAccount];\r\n\r\n        } else {\r\n            // the auction finished without being canceled\r\n\r\n            if (msg.sender == owner) {\r\n                // the auction's owner should be allowed to withdraw the highestBindingBid\r\n                withdrawalAccount = highestBidder;\r\n                withdrawalAmount = highestBindingBid;\r\n                ownerHasWithdrawn = true;\r\n\r\n            } \r\n            else if (msg.sender == highestBidder) {\r\n               revert();\r\n            } \r\n            else {\r\n                // anyone who participated but did not win the auction should be allowed to withdraw\r\n                // the full amount of their funds\r\n                withdrawalAccount = msg.sender;\r\n                withdrawalAmount = fundsByBidder[withdrawalAccount];\r\n            }\r\n        }\r\n\r\n        if (withdrawalAmount == 0) revert();\r\n\r\n        fundsByBidder[withdrawalAccount] -= withdrawalAmount;\r\n\r\n        // send the funds\r\n        if (!msg.sender.send(withdrawalAmount)) revert();\r\n\r\n        emit LogWithdrawal(msg.sender, withdrawalAccount, withdrawalAmount);\r\n\r\n        return true;\r\n    }\r\n\r\n    \r\n    modifier onlyOwner {\r\n        if (msg.sender != owner) revert();\r\n        _;\r\n    }\r\n\r\n    modifier onlyNotOwner {\r\n        if (msg.sender == owner) revert();\r\n        _;\r\n    }\r\n\r\n    // modifier onlyAfterStart {\r\n    //     if (block.number < startBlock) revert();\r\n    //     _;\r\n    // }\r\n\r\n    modifier onlyBeforeEnd {\r\n        if (block.number > endBlock) revert();\r\n        _;\r\n    }\r\n\r\n    modifier onlyNotCanceled {\r\n        if (canceled) revert();\r\n        _;\r\n    }\r\n\r\n    modifier onlyEndedOrCanceled {\r\n        if (block.number < endBlock && !canceled) revert();\r\n        _;\r\n    }\r\n    \r\n    modifier onlyHigherprice {\r\n        if (startingPrice > msg.value) revert();\r\n        _;\r\n    }\r\n}",
  "sourcePath": "/mnt/c/Users/swast/Desktop/IIITD 4th Year/IBC/ProjectGit/Auction-System/react-dapp/contracts/Auction.sol",
  "compiler": {
    "name": "solc",
    "version": "0.5.16+commit.9c3226ce.Emscripten.clang"
  },
  "schemaVersion": "3.4.3",
  "updatedAt": "2021-12-11T18:37:01.321Z",
  "devdoc": {
    "methods": {}
  },
  "userdoc": {
    "methods": {}
  }
}