{
  "contractName": "AuctionBox",
  "abi": [
    {
      "constant": true,
      "inputs": [
        {
          "internalType": "uint256",
          "name": "",
          "type": "uint256"
        }
      ],
      "name": "auctions",
      "outputs": [
        {
          "internalType": "contract Auction",
          "name": "",
          "type": "address"
        }
      ],
      "payable": false,
      "stateMutability": "view",
      "type": "function"
    },
    {
      "constant": false,
      "inputs": [
        {
          "internalType": "string",
          "name": "_title",
          "type": "string"
        },
        {
          "internalType": "uint256",
          "name": "_startTime",
          "type": "uint256"
        },
        {
          "internalType": "uint256",
          "name": "_endTime",
          "type": "uint256"
        },
        {
          "internalType": "uint256",
          "name": "_startingPrice",
          "type": "uint256"
        },
        {
          "internalType": "string",
          "name": "_description",
          "type": "string"
        }
      ],
      "name": "createAuction",
      "outputs": [],
      "payable": false,
      "stateMutability": "nonpayable",
      "type": "function"
    },
    {
      "constant": true,
      "inputs": [],
      "name": "returnAllAuctions",
      "outputs": [
        {
          "internalType": "contract Auction[]",
          "name": "",
          "type": "address[]"
        }
      ],
      "payable": false,
      "stateMutability": "view",
      "type": "function"
    }
  ],
  "bytecode": "0x608060405234801561001057600080fd5b5061178b806100206000396000f3fe608060405234801561001057600080fd5b50600436106100415760003560e01c806341e776ac14610046578063571a26a0146101b6578063d1f28df614610224575b600080fd5b6101b4600480360360a081101561005c57600080fd5b810190808035906020019064010000000081111561007957600080fd5b82018360208201111561008b57600080fd5b803590602001918460018302840111640100000000831117156100ad57600080fd5b91908080601f016020809104026020016040519081016040528093929190818152602001838380828437600081840152601f19601f8201169050808301925050505050505091929192908035906020019092919080359060200190929190803590602001909291908035906020019064010000000081111561012e57600080fd5b82018360208201111561014057600080fd5b8035906020019184600183028401116401000000008311171561016257600080fd5b91908080601f016020809104026020016040519081016040528093929190818152602001838380828437600081840152601f19601f820116905080830192505050505050509192919290505050610283565b005b6101e2600480360360208110156101cc57600080fd5b8101908080359060200190929190505050610447565b604051808273ffffffffffffffffffffffffffffffffffffffff1673ffffffffffffffffffffffffffffffffffffffff16815260200191505060405180910390f35b61022c610483565b6040518080602001828103825283818151815260200191508051906020019060200280838360005b8381101561026f578082015181840152602081019050610254565b505050509050019250505060405180910390f35b600033868487878660405161029790610511565b808773ffffffffffffffffffffffffffffffffffffffff1673ffffffffffffffffffffffffffffffffffffffff1681526020018060200186815260200185815260200184815260200180602001838103835288818151815260200191508051906020019080838360005b8381101561031c578082015181840152602081019050610301565b50505050905090810190601f1680156103495780820380516001836020036101000a031916815260200191505b50838103825284818151815260200191508051906020019080838360005b83811015610382578082015181840152602081019050610367565b50505050905090810190601f1680156103af5780820380516001836020036101000a031916815260200191505b5098505050505050505050604051809103906000f0801580156103d6573d6000803e3d6000fd5b50905060008190806001815401808255809150509060018203906000526020600020016000909192909190916101000a81548173ffffffffffffffffffffffffffffffffffffffff021916908373ffffffffffffffffffffffffffffffffffffffff16021790555050505050505050565b6000818154811061045457fe5b906000526020600020016000915054906101000a900473ffffffffffffffffffffffffffffffffffffffff1681565b6060600080548060200260200160405190810160405280929190818152602001828054801561050757602002820191906000526020600020905b8160009054906101000a900473ffffffffffffffffffffffffffffffffffffffff1673ffffffffffffffffffffffffffffffffffffffff16815260200190600101908083116104bd575b5050505050905090565b6112388061051f8339019056fe608060405260006009553480156200001657600080fd5b506040516200123838038062001238833981810160405260c08110156200003c57600080fd5b8101908080519060200190929190805160405193929190846401000000008211156200006757600080fd5b838201915060208201858111156200007e57600080fd5b82518660018202830111640100000000821117156200009c57600080fd5b8083526020830192505050908051906020019080838360005b83811015620000d2578082015181840152602081019050620000b5565b50505050905090810190601f168015620001005780820380516001836020036101000a031916815260200191505b50604052602001805190602001909291908051906020019092919080519060200190929190805160405193929190846401000000008211156200014257600080fd5b838201915060208201858111156200015957600080fd5b82518660018202830111640100000000821117156200017757600080fd5b8083526020830192505050908051906020019080838360005b83811015620001ad57808201518184015260208101905062000190565b50505050905090810190601f168015620001db5780820380516001836020036101000a031916815260200191505b50604052505050600073ffffffffffffffffffffffffffffffffffffffff168673ffffffffffffffffffffffffffffffffffffffff1614156200021d57600080fd5b6000855114156200022d57600080fd5b60008410156200023c57600080fd5b846001908051906020019062000254929190620002cf565b5083600681905550856000806101000a81548173ffffffffffffffffffffffffffffffffffffffff021916908373ffffffffffffffffffffffffffffffffffffffff16021790555082600281905550816003819055508060049080519060200190620002c2929190620002cf565b505050505050506200037e565b828054600181600116156101000203166002900490600052602060002090601f016020900481019282601f106200031257805160ff191683800117855562000343565b8280016001018555821562000343579182015b828111156200034257825182559160200191906001019062000325565b5b50905062000352919062000356565b5090565b6200037b91905b80821115620003775760008160009055506001016200035d565b5090565b90565b610eaa806200038e6000396000f3fe6080604052600436106101095760003560e01c80638fa8b79011610095578063d6fbf20211610064578063d6fbf202146104f2578063ecfc7ecc1461051d578063f5b56c561461053f578063f8a8fd6d1461056a578063ff3c1a8f1461059557610109565b80638fa8b790146103dc57806391f901571461040b57806398d5fdca14610462578063ce10cf801461048d57610109565b80634979440a116100dc5780634979440a1461020f5780634a79d50c1461023a5780637284e416146102ca57806378e979251461035a5780638da5cb5b1461038557610109565b80631a0925411461010e5780633197cbb61461019e5780633ccfd60b146101c95780633f9942ff146101e0575b600080fd5b34801561011a57600080fd5b50610123610625565b6040518080602001828103825283818151815260200191508051906020019080838360005b83811015610163578082015181840152602081019050610148565b50505050905090810190601f1680156101905780820380516001836020036101000a031916815260200191505b509250505060405180910390f35b3480156101aa57600080fd5b506101b36106c7565b6040518082815260200191505060405180910390f35b3480156101d557600080fd5b506101de6106cd565b005b3480156101ec57600080fd5b506101f56108ae565b604051808215151515815260200191505060405180910390f35b34801561021b57600080fd5b506102246108c1565b6040518082815260200191505060405180910390f35b34801561024657600080fd5b5061024f61092a565b6040518080602001828103825283818151815260200191508051906020019080838360005b8381101561028f578082015181840152602081019050610274565b50505050905090810190601f1680156102bc5780820380516001836020036101000a031916815260200191505b509250505060405180910390f35b3480156102d657600080fd5b506102df6109c8565b6040518080602001828103825283818151815260200191508051906020019080838360005b8381101561031f578082015181840152602081019050610304565b50505050905090810190601f16801561034c5780820380516001836020036101000a031916815260200191505b509250505060405180910390f35b34801561036657600080fd5b5061036f610a66565b6040518082815260200191505060405180910390f35b34801561039157600080fd5b5061039a610a6c565b604051808273ffffffffffffffffffffffffffffffffffffffff1673ffffffffffffffffffffffffffffffffffffffff16815260200191505060405180910390f35b3480156103e857600080fd5b506103f1610a91565b604051808215151515815260200191505060405180910390f35b34801561041757600080fd5b50610420610b63565b604051808273ffffffffffffffffffffffffffffffffffffffff1673ffffffffffffffffffffffffffffffffffffffff16815260200191505060405180910390f35b34801561046e57600080fd5b50610477610b89565b6040518082815260200191505060405180910390f35b34801561049957600080fd5b506104dc600480360360208110156104b057600080fd5b81019080803573ffffffffffffffffffffffffffffffffffffffff169060200190929190505050610b93565b6040518082815260200191505060405180910390f35b3480156104fe57600080fd5b50610507610bab565b6040518082815260200191505060405180910390f35b610525610bb1565b604051808215151515815260200191505060405180910390f35b34801561054b57600080fd5b50610554610dc5565b6040518082815260200191505060405180910390f35b34801561057657600080fd5b5061057f610dcb565b6040518082815260200191505060405180910390f35b3480156105a157600080fd5b506105aa610dd3565b6040518080602001828103825283818151815260200191508051906020019080838360005b838110156105ea5780820151818401526020810190506105cf565b50505050905090810190601f1680156106175780820380516001836020036101000a031916815260200191505b509250505060405180910390f35b606060048054600181600116156101000203166002900480601f0160208091040260200160405190810160405280929190818152602001828054600181600116156101000203166002900480156106bd5780601f10610692576101008083540402835291602001916106bd565b820191906000526020600020905b8154815290600101906020018083116106a057829003601f168201915b5050505050905090565b60035481565b6000806000809054906101000a900473ffffffffffffffffffffffffffffffffffffffff1673ffffffffffffffffffffffffffffffffffffffff163373ffffffffffffffffffffffffffffffffffffffff161415610753576000809054906101000a900473ffffffffffffffffffffffffffffffffffffffff169150600954905061081e565b600760009054906101000a900473ffffffffffffffffffffffffffffffffffffffff1673ffffffffffffffffffffffffffffffffffffffff163373ffffffffffffffffffffffffffffffffffffffff1614156107d757600760009054906101000a900473ffffffffffffffffffffffffffffffffffffffff1691506000905061081d565b339150600860003373ffffffffffffffffffffffffffffffffffffffff1673ffffffffffffffffffffffffffffffffffffffff1681526020019081526020016000205490505b5b6000600860003373ffffffffffffffffffffffffffffffffffffffff1673ffffffffffffffffffffffffffffffffffffffff168152602001908152602001600020819055508173ffffffffffffffffffffffffffffffffffffffff166108fc829081150290604051600060405180830381858888f193505050501580156108a9573d6000803e3d6000fd5b505050565b600560009054906101000a900460ff1681565b600060086000600760009054906101000a900473ffffffffffffffffffffffffffffffffffffffff1673ffffffffffffffffffffffffffffffffffffffff1673ffffffffffffffffffffffffffffffffffffffff16815260200190815260200160002054905090565b60018054600181600116156101000203166002900480601f0160208091040260200160405190810160405280929190818152602001828054600181600116156101000203166002900480156109c05780601f10610995576101008083540402835291602001916109c0565b820191906000526020600020905b8154815290600101906020018083116109a357829003601f168201915b505050505081565b60048054600181600116156101000203166002900480601f016020809104026020016040519081016040528092919081815260200182805460018160011615610100020316600290048015610a5e5780601f10610a3357610100808354040283529160200191610a5e565b820191906000526020600020905b815481529060010190602001808311610a4157829003601f168201915b505050505081565b60025481565b6000809054906101000a900473ffffffffffffffffffffffffffffffffffffffff1681565b60008060009054906101000a900473ffffffffffffffffffffffffffffffffffffffff1673ffffffffffffffffffffffffffffffffffffffff163373ffffffffffffffffffffffffffffffffffffffff1614610aec57600080fd5b600354421115610afb57600080fd5b600560009054906101000a900460ff1615610b1557600080fd5b6001600560006101000a81548160ff0219169083151502179055507f462b6ca7f632601af1295aeb320851f50e8e630a309173f23535845ea4bfb3b960405160405180910390a16001905090565b600760009054906101000a900473ffffffffffffffffffffffffffffffffffffffff1681565b6000600654905090565b60086020528060005260406000206000915090505481565b60065481565b6000600254421015610bc257600080fd5b600354421115610bd157600080fd5b600560009054906101000a900460ff1615610beb57600080fd5b6000809054906101000a900473ffffffffffffffffffffffffffffffffffffffff1673ffffffffffffffffffffffffffffffffffffffff163373ffffffffffffffffffffffffffffffffffffffff161415610c4557600080fd5b6000341415610c5357600080fd5b34600860003373ffffffffffffffffffffffffffffffffffffffff1673ffffffffffffffffffffffffffffffffffffffff16815260200190815260200160002060008282540192505081905550346009541015610cf3573460098190555033600760006101000a81548173ffffffffffffffffffffffffffffffffffffffff021916908373ffffffffffffffffffffffffffffffffffffffff1602179055505b7f49e60d8d833f1250f6ede154509b047fe77c1eae57655e8176675b5f91af7b0a3334600760009054906101000a900473ffffffffffffffffffffffffffffffffffffffff16600954604051808573ffffffffffffffffffffffffffffffffffffffff1673ffffffffffffffffffffffffffffffffffffffff1681526020018481526020018373ffffffffffffffffffffffffffffffffffffffff1673ffffffffffffffffffffffffffffffffffffffff16815260200182815260200194505050505060405180910390a16001905090565b60095481565b600042905090565b606060018054600181600116156101000203166002900480601f016020809104026020016040519081016040528092919081815260200182805460018160011615610100020316600290048015610e6b5780601f10610e4057610100808354040283529160200191610e6b565b820191906000526020600020905b815481529060010190602001808311610e4e57829003601f168201915b505050505090509056fea265627a7a723158201bda29c388a91b587890d09e1971737beb41ba88a31c2a5d39f300187f08c3c064736f6c63430005100032a265627a7a72315820e2a3d1d87e23ecbfc13c78de18ab26a8056c491713262ccd135fc0178c3df1b164736f6c63430005100032",
  "source": "pragma solidity >=0.4.22 <0.9.0;\nimport \"./Auction.sol\";\n\ncontract AuctionBox{\n    \n    Auction[] public auctions; \n   \n    function createAuction (\n        string memory _title,\n        uint _startTime,\n        uint _endTime,\n        uint _startingPrice,\n        string memory _description\n        ) public{\n        // set the new instance\n        Auction newAuction = new Auction(msg.sender, _title, _startingPrice, _startTime,_endTime,_description);\n        // push the auction address to auctions array\n        auctions.push(newAuction);\n    }\n    \n    function returnAllAuctions() public view returns(Auction[] memory){\n        return auctions;\n    }\n}\n",
  "sourcePath": "/home/nitin/Desktop/Semester 7/Auction-System/react-dapp/contracts/AuctionBox.sol",
  "compiler": {
    "name": "solc",
    "version": "0.5.16+commit.9c3226ce.Emscripten.clang"
  },
  "schemaVersion": "3.4.3",
  "updatedAt": "2021-12-12T18:30:41.462Z",
  "devdoc": {
    "methods": {}
  },
  "userdoc": {
    "methods": {}
  }
}