{
  "contractName": "Auction",
  "abi": [
    {
      "inputs": [
        {
          "internalType": "address payable",
          "name": "_owner",
          "type": "address"
        },
        {
          "internalType": "string",
          "name": "_title",
          "type": "string"
        },
        {
          "internalType": "uint256",
          "name": "_startingPrice",
          "type": "uint256"
        },
        {
          "internalType": "uint256",
          "name": "_startTime",
          "type": "uint256"
        },
        {
          "internalType": "uint256",
          "name": "_endTime",
          "type": "uint256"
        },
        {
          "internalType": "string",
          "name": "_description",
          "type": "string"
        }
      ],
      "payable": false,
      "stateMutability": "nonpayable",
      "type": "constructor"
    },
    {
      "anonymous": false,
      "inputs": [
        {
          "indexed": false,
          "internalType": "address",
          "name": "bidder",
          "type": "address"
        },
        {
          "indexed": false,
          "internalType": "uint256",
          "name": "bid",
          "type": "uint256"
        },
        {
          "indexed": false,
          "internalType": "address",
          "name": "highestBidder",
          "type": "address"
        },
        {
          "indexed": false,
          "internalType": "uint256",
          "name": "highestBindingBid",
          "type": "uint256"
        }
      ],
      "name": "LogBid",
      "type": "event"
    },
    {
      "anonymous": false,
      "inputs": [
        {
          "indexed": false,
          "internalType": "address",
          "name": "withdrawer",
          "type": "address"
        },
        {
          "indexed": false,
          "internalType": "address",
          "name": "withdrawalAccount",
          "type": "address"
        },
        {
          "indexed": false,
          "internalType": "uint256",
          "name": "amount",
          "type": "uint256"
        }
      ],
      "name": "LogWithdrawal",
      "type": "event"
    },
    {
      "constant": true,
      "inputs": [],
      "name": "description",
      "outputs": [
        {
          "internalType": "string",
          "name": "",
          "type": "string"
        }
      ],
      "payable": false,
      "stateMutability": "view",
      "type": "function"
    },
    {
      "constant": true,
      "inputs": [],
      "name": "endTime",
      "outputs": [
        {
          "internalType": "uint256",
          "name": "",
          "type": "uint256"
        }
      ],
      "payable": false,
      "stateMutability": "view",
      "type": "function"
    },
    {
      "constant": true,
      "inputs": [
        {
          "internalType": "address",
          "name": "",
          "type": "address"
        }
      ],
      "name": "fundsByBidder",
      "outputs": [
        {
          "internalType": "uint256",
          "name": "",
          "type": "uint256"
        }
      ],
      "payable": false,
      "stateMutability": "view",
      "type": "function"
    },
    {
      "constant": true,
      "inputs": [],
      "name": "highestBidder",
      "outputs": [
        {
          "internalType": "address payable",
          "name": "",
          "type": "address"
        }
      ],
      "payable": false,
      "stateMutability": "view",
      "type": "function"
    },
    {
      "constant": true,
      "inputs": [],
      "name": "highestBindingBid",
      "outputs": [
        {
          "internalType": "uint256",
          "name": "",
          "type": "uint256"
        }
      ],
      "payable": false,
      "stateMutability": "view",
      "type": "function"
    },
    {
      "constant": true,
      "inputs": [],
      "name": "owner",
      "outputs": [
        {
          "internalType": "address payable",
          "name": "",
          "type": "address"
        }
      ],
      "payable": false,
      "stateMutability": "view",
      "type": "function"
    },
    {
      "constant": true,
      "inputs": [],
      "name": "startTime",
      "outputs": [
        {
          "internalType": "uint256",
          "name": "",
          "type": "uint256"
        }
      ],
      "payable": false,
      "stateMutability": "view",
      "type": "function"
    },
    {
      "constant": true,
      "inputs": [],
      "name": "startingPrice",
      "outputs": [
        {
          "internalType": "uint256",
          "name": "",
          "type": "uint256"
        }
      ],
      "payable": false,
      "stateMutability": "view",
      "type": "function"
    },
    {
      "constant": true,
      "inputs": [],
      "name": "title",
      "outputs": [
        {
          "internalType": "string",
          "name": "",
          "type": "string"
        }
      ],
      "payable": false,
      "stateMutability": "view",
      "type": "function"
    },
    {
      "constant": true,
      "inputs": [],
      "name": "getHighestBid",
      "outputs": [
        {
          "internalType": "uint256",
          "name": "",
          "type": "uint256"
        }
      ],
      "payable": false,
      "stateMutability": "view",
      "type": "function"
    },
    {
      "constant": false,
      "inputs": [],
      "name": "getTitle",
      "outputs": [
        {
          "internalType": "string",
          "name": "",
          "type": "string"
        }
      ],
      "payable": false,
      "stateMutability": "nonpayable",
      "type": "function"
    },
    {
      "constant": false,
      "inputs": [],
      "name": "getStartTime",
      "outputs": [
        {
          "internalType": "uint256",
          "name": "",
          "type": "uint256"
        }
      ],
      "payable": false,
      "stateMutability": "nonpayable",
      "type": "function"
    },
    {
      "constant": false,
      "inputs": [],
      "name": "getEndTime",
      "outputs": [
        {
          "internalType": "uint256",
          "name": "",
          "type": "uint256"
        }
      ],
      "payable": false,
      "stateMutability": "nonpayable",
      "type": "function"
    },
    {
      "constant": false,
      "inputs": [],
      "name": "getPrice",
      "outputs": [
        {
          "internalType": "uint256",
          "name": "",
          "type": "uint256"
        }
      ],
      "payable": false,
      "stateMutability": "nonpayable",
      "type": "function"
    },
    {
      "constant": false,
      "inputs": [],
      "name": "getDescription",
      "outputs": [
        {
          "internalType": "string",
          "name": "",
          "type": "string"
        }
      ],
      "payable": false,
      "stateMutability": "nonpayable",
      "type": "function"
    },
    {
      "constant": false,
      "inputs": [],
      "name": "placeBid",
      "outputs": [
        {
          "internalType": "bool",
          "name": "success",
          "type": "bool"
        }
      ],
      "payable": true,
      "stateMutability": "payable",
      "type": "function"
    },
    {
      "constant": false,
      "inputs": [],
      "name": "withdraw",
      "outputs": [],
      "payable": false,
      "stateMutability": "nonpayable",
      "type": "function"
    }
  ],
  "bytecode": "0x608060405260006008553480156200001657600080fd5b506040516200110738038062001107833981810160405260c08110156200003c57600080fd5b8101908080519060200190929190805160405193929190846401000000008211156200006757600080fd5b838201915060208201858111156200007e57600080fd5b82518660018202830111640100000000821117156200009c57600080fd5b8083526020830192505050908051906020019080838360005b83811015620000d2578082015181840152602081019050620000b5565b50505050905090810190601f168015620001005780820380516001836020036101000a031916815260200191505b50604052602001805190602001909291908051906020019092919080519060200190929190805160405193929190846401000000008211156200014257600080fd5b838201915060208201858111156200015957600080fd5b82518660018202830111640100000000821117156200017757600080fd5b8083526020830192505050908051906020019080838360005b83811015620001ad57808201518184015260208101905062000190565b50505050905090810190601f168015620001db5780820380516001836020036101000a031916815260200191505b50604052505050600073ffffffffffffffffffffffffffffffffffffffff168673ffffffffffffffffffffffffffffffffffffffff1614156200021d57600080fd5b6000855114156200022d57600080fd5b60008410156200023c57600080fd5b846001908051906020019062000254929190620002cf565b5083600581905550856000806101000a81548173ffffffffffffffffffffffffffffffffffffffff021916908373ffffffffffffffffffffffffffffffffffffffff16021790555082600281905550816003819055508060049080519060200190620002c2929190620002cf565b505050505050506200037e565b828054600181600116156101000203166002900490600052602060002090601f016020900481019282601f106200031257805160ff191683800117855562000343565b8280016001018555821562000343579182015b828111156200034257825182559160200191906001019062000325565b5b50905062000352919062000356565b5090565b6200037b91905b80821115620003775760008160009055506001016200035d565b5090565b90565b610d79806200038e6000396000f3fe6080604052600436106100fe5760003560e01c80638da5cb5b11610095578063ce10cf8011610064578063ce10cf801461047a578063d6fbf202146104df578063ecfc7ecc1461050a578063f5b56c561461052c578063ff3c1a8f14610557576100fe565b80638da5cb5b1461037657806391f90157146103cd57806398d5fdca14610424578063c828371e1461044f576100fe565b80634979440a116100d15780634979440a146102005780634a79d50c1461022b5780637284e416146102bb57806378e979251461034b576100fe565b80631a092541146101035780633197cbb6146101935780633ccfd60b146101be578063439f5ac2146101d5575b600080fd5b34801561010f57600080fd5b506101186105e7565b6040518080602001828103825283818151815260200191508051906020019080838360005b8381101561015857808201518184015260208101905061013d565b50505050905090810190601f1680156101855780820380516001836020036101000a031916815260200191505b509250505060405180910390f35b34801561019f57600080fd5b506101a8610689565b6040518082815260200191505060405180910390f35b3480156101ca57600080fd5b506101d361068f565b005b3480156101e157600080fd5b506101ea610870565b6040518082815260200191505060405180910390f35b34801561020c57600080fd5b5061021561087a565b6040518082815260200191505060405180910390f35b34801561023757600080fd5b506102406108e3565b6040518080602001828103825283818151815260200191508051906020019080838360005b83811015610280578082015181840152602081019050610265565b50505050905090810190601f1680156102ad5780820380516001836020036101000a031916815260200191505b509250505060405180910390f35b3480156102c757600080fd5b506102d0610981565b6040518080602001828103825283818151815260200191508051906020019080838360005b838110156103105780820151818401526020810190506102f5565b50505050905090810190601f16801561033d5780820380516001836020036101000a031916815260200191505b509250505060405180910390f35b34801561035757600080fd5b50610360610a1f565b6040518082815260200191505060405180910390f35b34801561038257600080fd5b5061038b610a25565b604051808273ffffffffffffffffffffffffffffffffffffffff1673ffffffffffffffffffffffffffffffffffffffff16815260200191505060405180910390f35b3480156103d957600080fd5b506103e2610a4a565b604051808273ffffffffffffffffffffffffffffffffffffffff1673ffffffffffffffffffffffffffffffffffffffff16815260200191505060405180910390f35b34801561043057600080fd5b50610439610a70565b6040518082815260200191505060405180910390f35b34801561045b57600080fd5b50610464610a7a565b6040518082815260200191505060405180910390f35b34801561048657600080fd5b506104c96004803603602081101561049d57600080fd5b81019080803573ffffffffffffffffffffffffffffffffffffffff169060200190929190505050610a84565b6040518082815260200191505060405180910390f35b3480156104eb57600080fd5b506104f4610a9c565b6040518082815260200191505060405180910390f35b610512610aa2565b604051808215151515815260200191505060405180910390f35b34801561053857600080fd5b50610541610c9c565b6040518082815260200191505060405180910390f35b34801561056357600080fd5b5061056c610ca2565b6040518080602001828103825283818151815260200191508051906020019080838360005b838110156105ac578082015181840152602081019050610591565b50505050905090810190601f1680156105d95780820380516001836020036101000a031916815260200191505b509250505060405180910390f35b606060048054600181600116156101000203166002900480601f01602080910402602001604051908101604052809291908181526020018280546001816001161561010002031660029004801561067f5780601f106106545761010080835404028352916020019161067f565b820191906000526020600020905b81548152906001019060200180831161066257829003601f168201915b5050505050905090565b60035481565b6000806000809054906101000a900473ffffffffffffffffffffffffffffffffffffffff1673ffffffffffffffffffffffffffffffffffffffff163373ffffffffffffffffffffffffffffffffffffffff161415610715576000809054906101000a900473ffffffffffffffffffffffffffffffffffffffff16915060085490506107e0565b600660009054906101000a900473ffffffffffffffffffffffffffffffffffffffff1673ffffffffffffffffffffffffffffffffffffffff163373ffffffffffffffffffffffffffffffffffffffff16141561079957600660009054906101000a900473ffffffffffffffffffffffffffffffffffffffff169150600090506107df565b339150600760003373ffffffffffffffffffffffffffffffffffffffff1673ffffffffffffffffffffffffffffffffffffffff1681526020019081526020016000205490505b5b6000600760003373ffffffffffffffffffffffffffffffffffffffff1673ffffffffffffffffffffffffffffffffffffffff168152602001908152602001600020819055508173ffffffffffffffffffffffffffffffffffffffff166108fc829081150290604051600060405180830381858888f1935050505015801561086b573d6000803e3d6000fd5b505050565b6000600354905090565b600060076000600660009054906101000a900473ffffffffffffffffffffffffffffffffffffffff1673ffffffffffffffffffffffffffffffffffffffff1673ffffffffffffffffffffffffffffffffffffffff16815260200190815260200160002054905090565b60018054600181600116156101000203166002900480601f0160208091040260200160405190810160405280929190818152602001828054600181600116156101000203166002900480156109795780601f1061094e57610100808354040283529160200191610979565b820191906000526020600020905b81548152906001019060200180831161095c57829003601f168201915b505050505081565b60048054600181600116156101000203166002900480601f016020809104026020016040519081016040528092919081815260200182805460018160011615610100020316600290048015610a175780601f106109ec57610100808354040283529160200191610a17565b820191906000526020600020905b8154815290600101906020018083116109fa57829003601f168201915b505050505081565b60025481565b6000809054906101000a900473ffffffffffffffffffffffffffffffffffffffff1681565b600660009054906101000a900473ffffffffffffffffffffffffffffffffffffffff1681565b6000600554905090565b6000600254905090565b60076020528060005260406000206000915090505481565b60055481565b6000600254421015610ab357600080fd5b600354421115610ac257600080fd5b6000809054906101000a900473ffffffffffffffffffffffffffffffffffffffff1673ffffffffffffffffffffffffffffffffffffffff163373ffffffffffffffffffffffffffffffffffffffff161415610b1c57600080fd5b6000341415610b2a57600080fd5b34600760003373ffffffffffffffffffffffffffffffffffffffff1673ffffffffffffffffffffffffffffffffffffffff16815260200190815260200160002060008282540192505081905550346008541015610bca573460088190555033600660006101000a81548173ffffffffffffffffffffffffffffffffffffffff021916908373ffffffffffffffffffffffffffffffffffffffff1602179055505b7f49e60d8d833f1250f6ede154509b047fe77c1eae57655e8176675b5f91af7b0a3334600660009054906101000a900473ffffffffffffffffffffffffffffffffffffffff16600854604051808573ffffffffffffffffffffffffffffffffffffffff1673ffffffffffffffffffffffffffffffffffffffff1681526020018481526020018373ffffffffffffffffffffffffffffffffffffffff1673ffffffffffffffffffffffffffffffffffffffff16815260200182815260200194505050505060405180910390a16001905090565b60085481565b606060018054600181600116156101000203166002900480601f016020809104026020016040519081016040528092919081815260200182805460018160011615610100020316600290048015610d3a5780601f10610d0f57610100808354040283529160200191610d3a565b820191906000526020600020905b815481529060010190602001808311610d1d57829003601f168201915b505050505090509056fea265627a7a723158200b342dfac211871a40fc04a9a4fe0dee2f17ae504fe3790d7a08eceb6b978d8764736f6c63430005100032",
  "source": "pragma solidity >=0.4.22 <0.9.0;\n// pragma solidity ^0.4.8;\n\ncontract Auction {\n    address payable public owner;\n    \n    string public title;\n    uint public startTime;\n    uint public endTime;\n    string public description;\n    uint public startingPrice;\n    \n    address payable public highestBidder;\n    mapping(address => uint256) public fundsByBidder;\n    uint public highestBindingBid = 0;\n          \n    \n    \n    constructor (address payable  _owner, string  memory _title, uint _startingPrice, uint _startTime, uint _endTime, string memory _description) public {\n        if (_owner == address(0)) revert();\n        if (bytes(_title).length == 0) revert();\n        if (_startingPrice<0) revert();\n        \n        title = _title;\n        startingPrice = _startingPrice;\n        owner = _owner;\n        startTime = _startTime;\n        endTime = _endTime;\n        description = _description;\n    }\n\n    function getHighestBid()\n        public view\n        returns (uint)\n    {\n        return fundsByBidder[highestBidder];\n    }\n    \n    event LogBid(address bidder, uint bid, address highestBidder, uint highestBindingBid);\n    event LogWithdrawal(address withdrawer, address withdrawalAccount, uint amount);\n\n\n    function getTitle()\n        public\n        returns (string memory )\n    {\n\n        return title;\n    }\n\n    function getStartTime()\n        public \n        returns (uint)\n    {\n        return startTime;\n    }\n\n    function getEndTime()\n        public \n        returns (uint)\n    {\n        return endTime;\n    }\n\n    function getPrice()\n        public\n        returns (uint)\n    {   \n        return startingPrice;\n    }\n\n    function getDescription()\n        public\n        returns (string memory)\n    {\n        return description;\n    }\n\n    function placeBid ()\n        payable\n        onlyAfterStart\n        onlyBeforeEnd\n        onlyNotOwner\n        public returns (bool success) {\n            if (msg.value == 0) revert();\n            fundsByBidder[msg.sender] += msg.value;\n            \n            if (highestBindingBid<msg.value){\n                highestBindingBid = msg.value;\n                highestBidder = msg.sender;\n            }\n            emit LogBid(msg.sender, msg.value, highestBidder, highestBindingBid);\n            return true;\n        }\n        \n    function withdraw() public{\n        //the owner and bidders can finalize the auction.\n        // require(msg.sender == owner || bids[msg.sender] > 0);\n\n        address payable recipiant;\n        uint value;\n\n        // owner can get highestPrice\n        if(msg.sender == owner){\n            recipiant = owner;\n            value = highestBindingBid;\n        }\n        // highestBidder can get no money\n        else if (msg.sender == highestBidder){\n            recipiant = highestBidder;\n            value = 0;\n        }\n        // Other bidders can get back the money \n        else {\n            recipiant = msg.sender;\n            value = fundsByBidder[msg.sender];\n        }\n        // initialize the value\n        fundsByBidder[msg.sender] = 0;\n        recipiant.transfer(value);\n    }\n    \n    modifier onlyOwner {\n        if (msg.sender != owner) revert();\n        _;\n    }\n\n    modifier onlyNotOwner {\n        if (msg.sender == owner) revert();\n        _;\n    }\n\n    modifier onlyAfterStart {\n        if (now < startTime) revert();\n        _;\n    }\n\n    modifier onlyBeforeEnd {\n        if (now > endTime) revert();\n        _;\n    }\n\n\n    modifier onlyEndedOrCanceled {\n        if (block.number < endTime) revert();\n        _;\n    }\n    \n    modifier onlyHigherprice {\n        if (startingPrice > msg.value) revert();\n        _;\n    }\n}",
  "sourcePath": "/Users/teenvan/IIITD/Monsoon 2021/IBC/Auction-System/react-dapp/contracts/Auction.sol",
  "compiler": {
    "name": "solc",
    "version": "0.5.16+commit.9c3226ce.Emscripten.clang"
  },
  "schemaVersion": "3.4.3",
  "updatedAt": "2021-12-12T19:41:44.814Z",
  "devdoc": {
    "methods": {}
  },
  "userdoc": {
    "methods": {}
  }
}