{
  "contractName": "AuctionBox",
  "abi": [
    {
      "constant": true,
      "inputs": [
        {
          "internalType": "uint256",
          "name": "",
          "type": "uint256"
        }
      ],
      "name": "auctions",
      "outputs": [
        {
          "internalType": "contract Auction",
          "name": "",
          "type": "address"
        }
      ],
      "payable": false,
      "stateMutability": "view",
      "type": "function"
    },
    {
      "constant": false,
      "inputs": [
        {
          "internalType": "string",
          "name": "_title",
          "type": "string"
        },
        {
          "internalType": "uint256",
          "name": "_startingPrice",
          "type": "uint256"
        },
        {
          "internalType": "uint256",
          "name": "_startTime",
          "type": "uint256"
        },
        {
          "internalType": "uint256",
          "name": "_endTime",
          "type": "uint256"
        },
        {
          "internalType": "string",
          "name": "_description",
          "type": "string"
        }
      ],
      "name": "createAuction",
      "outputs": [],
      "payable": false,
      "stateMutability": "nonpayable",
      "type": "function"
    },
    {
      "constant": true,
      "inputs": [],
      "name": "returnAllAuctions",
      "outputs": [
        {
          "internalType": "contract Auction[]",
          "name": "",
          "type": "address[]"
        }
      ],
      "payable": false,
      "stateMutability": "view",
      "type": "function"
    }
  ],
  "bytecode": "0x608060405234801561001057600080fd5b506116a8806100206000396000f3fe608060405234801561001057600080fd5b50600436106100415760003560e01c806341e776ac14610046578063571a26a0146101b6578063d1f28df614610224575b600080fd5b6101b4600480360360a081101561005c57600080fd5b810190808035906020019064010000000081111561007957600080fd5b82018360208201111561008b57600080fd5b803590602001918460018302840111640100000000831117156100ad57600080fd5b91908080601f016020809104026020016040519081016040528093929190818152602001838380828437600081840152601f19601f8201169050808301925050505050505091929192908035906020019092919080359060200190929190803590602001909291908035906020019064010000000081111561012e57600080fd5b82018360208201111561014057600080fd5b8035906020019184600183028401116401000000008311171561016257600080fd5b91908080601f016020809104026020016040519081016040528093929190818152602001838380828437600081840152601f19601f820116905080830192505050505050509192919290505050610283565b005b6101e2600480360360208110156101cc57600080fd5b8101908080359060200190929190505050610455565b604051808273ffffffffffffffffffffffffffffffffffffffff1673ffffffffffffffffffffffffffffffffffffffff16815260200191505060405180910390f35b61022c610491565b6040518080602001828103825283818151815260200191508051906020019060200280838360005b8381101561026f578082015181840152602081019050610254565b505050509050019250505060405180910390f35b600084101561029157600080fd5b60003386868686866040516102a59061051f565b808773ffffffffffffffffffffffffffffffffffffffff1673ffffffffffffffffffffffffffffffffffffffff1681526020018060200186815260200185815260200184815260200180602001838103835288818151815260200191508051906020019080838360005b8381101561032a57808201518184015260208101905061030f565b50505050905090810190601f1680156103575780820380516001836020036101000a031916815260200191505b50838103825284818151815260200191508051906020019080838360005b83811015610390578082015181840152602081019050610375565b50505050905090810190601f1680156103bd5780820380516001836020036101000a031916815260200191505b5098505050505050505050604051809103906000f0801580156103e4573d6000803e3d6000fd5b50905060008190806001815401808255809150509060018203906000526020600020016000909192909190916101000a81548173ffffffffffffffffffffffffffffffffffffffff021916908373ffffffffffffffffffffffffffffffffffffffff16021790555050505050505050565b6000818154811061046257fe5b906000526020600020016000915054906101000a900473ffffffffffffffffffffffffffffffffffffffff1681565b6060600080548060200260200160405190810160405280929190818152602001828054801561051557602002820191906000526020600020905b8160009054906101000a900473ffffffffffffffffffffffffffffffffffffffff1673ffffffffffffffffffffffffffffffffffffffff16815260200190600101908083116104cb575b5050505050905090565b6111478061052d8339019056fe608060405260006008553480156200001657600080fd5b506040516200114738038062001147833981810160405260c08110156200003c57600080fd5b8101908080519060200190929190805160405193929190846401000000008211156200006757600080fd5b838201915060208201858111156200007e57600080fd5b82518660018202830111640100000000821117156200009c57600080fd5b8083526020830192505050908051906020019080838360005b83811015620000d2578082015181840152602081019050620000b5565b50505050905090810190601f168015620001005780820380516001836020036101000a031916815260200191505b50604052602001805190602001909291908051906020019092919080519060200190929190805160405193929190846401000000008211156200014257600080fd5b838201915060208201858111156200015957600080fd5b82518660018202830111640100000000821117156200017757600080fd5b8083526020830192505050908051906020019080838360005b83811015620001ad57808201518184015260208101905062000190565b50505050905090810190601f168015620001db5780820380516001836020036101000a031916815260200191505b50604052505050600085511415620001f257600080fd5b60008410156200020157600080fd5b814211156200020f57600080fd5b6000815114156200021f57600080fd5b846001908051906020019062000237929190620002b2565b5083600581905550856000806101000a81548173ffffffffffffffffffffffffffffffffffffffff021916908373ffffffffffffffffffffffffffffffffffffffff16021790555082600281905550816003819055508060049080519060200190620002a5929190620002b2565b5050505050505062000361565b828054600181600116156101000203166002900490600052602060002090601f016020900481019282601f10620002f557805160ff191683800117855562000326565b8280016001018555821562000326579182015b828111156200032557825182559160200191906001019062000308565b5b50905062000335919062000339565b5090565b6200035e91905b808211156200035a57600081600090555060010162000340565b5090565b90565b610dd680620003716000396000f3fe6080604052600436106100fe5760003560e01c80638da5cb5b11610095578063ce10cf8011610064578063ce10cf801461047a578063d6fbf202146104df578063ecfc7ecc1461050a578063f5b56c561461052c578063ff3c1a8f14610557576100fe565b80638da5cb5b1461037657806391f90157146103cd57806398d5fdca14610424578063c828371e1461044f576100fe565b80634979440a116100d15780634979440a146102005780634a79d50c1461022b5780637284e416146102bb57806378e979251461034b576100fe565b80631a092541146101035780633197cbb6146101935780633ccfd60b146101be578063439f5ac2146101d5575b600080fd5b34801561010f57600080fd5b506101186105e7565b6040518080602001828103825283818151815260200191508051906020019080838360005b8381101561015857808201518184015260208101905061013d565b50505050905090810190601f1680156101855780820380516001836020036101000a031916815260200191505b509250505060405180910390f35b34801561019f57600080fd5b506101a8610689565b6040518082815260200191505060405180910390f35b3480156101ca57600080fd5b506101d361068f565b005b3480156101e157600080fd5b506101ea6108cc565b6040518082815260200191505060405180910390f35b34801561020c57600080fd5b506102156108d6565b6040518082815260200191505060405180910390f35b34801561023757600080fd5b5061024061093f565b6040518080602001828103825283818151815260200191508051906020019080838360005b83811015610280578082015181840152602081019050610265565b50505050905090810190601f1680156102ad5780820380516001836020036101000a031916815260200191505b509250505060405180910390f35b3480156102c757600080fd5b506102d06109dd565b6040518080602001828103825283818151815260200191508051906020019080838360005b838110156103105780820151818401526020810190506102f5565b50505050905090810190601f16801561033d5780820380516001836020036101000a031916815260200191505b509250505060405180910390f35b34801561035757600080fd5b50610360610a7b565b6040518082815260200191505060405180910390f35b34801561038257600080fd5b5061038b610a81565b604051808273ffffffffffffffffffffffffffffffffffffffff1673ffffffffffffffffffffffffffffffffffffffff16815260200191505060405180910390f35b3480156103d957600080fd5b506103e2610aa6565b604051808273ffffffffffffffffffffffffffffffffffffffff1673ffffffffffffffffffffffffffffffffffffffff16815260200191505060405180910390f35b34801561043057600080fd5b50610439610acc565b6040518082815260200191505060405180910390f35b34801561045b57600080fd5b50610464610ad6565b6040518082815260200191505060405180910390f35b34801561048657600080fd5b506104c96004803603602081101561049d57600080fd5b81019080803573ffffffffffffffffffffffffffffffffffffffff169060200190929190505050610ae0565b6040518082815260200191505060405180910390f35b3480156104eb57600080fd5b506104f4610af8565b6040518082815260200191505060405180910390f35b610512610afe565b604051808215151515815260200191505060405180910390f35b34801561053857600080fd5b50610541610cf9565b6040518082815260200191505060405180910390f35b34801561056357600080fd5b5061056c610cff565b6040518080602001828103825283818151815260200191508051906020019080838360005b838110156105ac578082015181840152602081019050610591565b50505050905090810190601f1680156105d95780820380516001836020036101000a031916815260200191505b509250505060405180910390f35b606060048054600181600116156101000203166002900480601f01602080910402602001604051908101604052809291908181526020018280546001816001161561010002031660029004801561067f5780601f106106545761010080835404028352916020019161067f565b820191906000526020600020905b81548152906001019060200180831161066257829003601f168201915b5050505050905090565b60035481565b60035442101561069e57600080fd5b6000600760003373ffffffffffffffffffffffffffffffffffffffff1673ffffffffffffffffffffffffffffffffffffffff1681526020019081526020016000205410156106eb57600080fd5b6000806000809054906101000a900473ffffffffffffffffffffffffffffffffffffffff1673ffffffffffffffffffffffffffffffffffffffff163373ffffffffffffffffffffffffffffffffffffffff161415610771576000809054906101000a900473ffffffffffffffffffffffffffffffffffffffff169150600854905061083c565b600660009054906101000a900473ffffffffffffffffffffffffffffffffffffffff1673ffffffffffffffffffffffffffffffffffffffff163373ffffffffffffffffffffffffffffffffffffffff1614156107f557600660009054906101000a900473ffffffffffffffffffffffffffffffffffffffff1691506000905061083b565b339150600760003373ffffffffffffffffffffffffffffffffffffffff1673ffffffffffffffffffffffffffffffffffffffff1681526020019081526020016000205490505b5b6000600760003373ffffffffffffffffffffffffffffffffffffffff1673ffffffffffffffffffffffffffffffffffffffff168152602001908152602001600020819055508173ffffffffffffffffffffffffffffffffffffffff166108fc829081150290604051600060405180830381858888f193505050501580156108c7573d6000803e3d6000fd5b505050565b6000600354905090565b600060076000600660009054906101000a900473ffffffffffffffffffffffffffffffffffffffff1673ffffffffffffffffffffffffffffffffffffffff1673ffffffffffffffffffffffffffffffffffffffff16815260200190815260200160002054905090565b60018054600181600116156101000203166002900480601f0160208091040260200160405190810160405280929190818152602001828054600181600116156101000203166002900480156109d55780601f106109aa576101008083540402835291602001916109d5565b820191906000526020600020905b8154815290600101906020018083116109b857829003601f168201915b505050505081565b60048054600181600116156101000203166002900480601f016020809104026020016040519081016040528092919081815260200182805460018160011615610100020316600290048015610a735780601f10610a4857610100808354040283529160200191610a73565b820191906000526020600020905b815481529060010190602001808311610a5657829003601f168201915b505050505081565b60025481565b6000809054906101000a900473ffffffffffffffffffffffffffffffffffffffff1681565b600660009054906101000a900473ffffffffffffffffffffffffffffffffffffffff1681565b6000600554905090565b6000600254905090565b60076020528060005260406000206000915090505481565b60055481565b6000600254421015610b0f57600080fd5b600354421115610b1e57600080fd5b6000809054906101000a900473ffffffffffffffffffffffffffffffffffffffff1673ffffffffffffffffffffffffffffffffffffffff163373ffffffffffffffffffffffffffffffffffffffff161415610b7857600080fd5b346005541115610b8757600080fd5b34600760003373ffffffffffffffffffffffffffffffffffffffff1673ffffffffffffffffffffffffffffffffffffffff16815260200190815260200160002060008282540192505081905550346008541015610c27573460088190555033600660006101000a81548173ffffffffffffffffffffffffffffffffffffffff021916908373ffffffffffffffffffffffffffffffffffffffff1602179055505b7f49e60d8d833f1250f6ede154509b047fe77c1eae57655e8176675b5f91af7b0a3334600660009054906101000a900473ffffffffffffffffffffffffffffffffffffffff16600854604051808573ffffffffffffffffffffffffffffffffffffffff1673ffffffffffffffffffffffffffffffffffffffff1681526020018481526020018373ffffffffffffffffffffffffffffffffffffffff1673ffffffffffffffffffffffffffffffffffffffff16815260200182815260200194505050505060405180910390a16001905090565b60085481565b606060018054600181600116156101000203166002900480601f016020809104026020016040519081016040528092919081815260200182805460018160011615610100020316600290048015610d975780601f10610d6c57610100808354040283529160200191610d97565b820191906000526020600020905b815481529060010190602001808311610d7a57829003601f168201915b505050505090509056fea265627a7a7231582042315e688bb8802906e776201a1671a69ffac199b5500d3fa0a47b235a3a433864736f6c63430005100032a265627a7a72315820a76dc926e2659cec71f2fc455f17ddd1e9265b139199baf5d203bb918d686b7a64736f6c63430005100032",
  "source": "pragma solidity >=0.4.22 <0.9.0;\r\nimport \"./Auction.sol\";\r\n\r\ncontract AuctionBox{\r\n    \r\n    Auction[] public auctions; \r\n   \r\n    function createAuction (\r\n        string memory _title,\r\n        uint _startingPrice,\r\n        uint _startTime,\r\n        uint _endTime,\r\n        string memory _description\r\n        ) public{\r\n        // set the new instance\r\n        if (_startingPrice<0) revert();\r\n        Auction newAuction = new Auction(msg.sender, _title, _startingPrice, _startTime,_endTime,_description);\r\n        // push the auction address to auctions array\r\n        auctions.push(newAuction);\r\n    }\r\n    \r\n    function returnAllAuctions() public view returns(Auction[] memory){\r\n        return auctions;\r\n    }\r\n}\r\n",
  "sourcePath": "/mnt/c/Users/swast/Desktop/IIITD 4th Year/IBC/ProjectGit/Auction-System/react-dapp/contracts/AuctionBox.sol",
  "compiler": {
    "name": "solc",
    "version": "0.5.16+commit.9c3226ce.Emscripten.clang"
  },
  "schemaVersion": "3.4.3",
  "updatedAt": "2021-12-14T01:24:52.405Z",
  "networkType": "ethereum",
  "devdoc": {
    "methods": {}
  },
  "userdoc": {
    "methods": {}
  }
}